{
  "transactionIndex": 0,
  "block": {
    "author": "0xf3aaa94845d56869c48783d31204b78a80730e5e",
    "difficulty": "0xfffffffffffffffffffffffffffffffe",
    "extraData": "0xdb830303058c4f70656e457468657265756d86312e35392e30826c69",
    "gasLimit": "0x1312d00",
    "gasUsed": "0x39514",
    "hash": "0x384561f655df1192b5d2309eaa3a15252cbeb73563837cc4162c174ee7c0e6d6",
    "logsBloom": "0x00200000000000000000800082001000000000000000000000000002000040000000000800000000000000000000000200000000004000000000000000000000000000000000000000000008000010200000020000400020000000000000000000001010000000000000000000000000000000000000140000000010000000090000004000000000008000000000008000000000000000080000004000010000000000000000000000000000200000000000000000100008000000000000804000000082000000000000004000000020000000020000001040000002000000000000000000000000000000200000000100020001a02000020001020001002000",
    "miner": "0xf3aaa94845d56869c48783d31204b78a80730e5e",
    "number": "0x54022a",
    "parentHash": "0xf577ac38a256d8f6bea5634b665d7e055b2477359ccb4216b2de5304f7e8f2bf",
    "receiptsRoot": "0xb3ea65577fb3a261b97498752243820adc81ffff87048fc8dc9c2303ee7f4568",
    "sealFields": [
      "0x8413bfaed5",
      "0xb841f6c753295c69f57f7283bf83f9fccac39453270a50c1e938bf0c7d774cec4c656acdad3a3965d9b77c5055bdedf4cb63048820921bf8a3809803f06d6c53364100"
    ],
    "sha3Uncles": "0x1dcc4de8dec75d7aab85b567b6ccd41ad312451b948a7413f0a142fd40d49347",
    "signature": "f6c753295c69f57f7283bf83f9fccac39453270a50c1e938bf0c7d774cec4c656acdad3a3965d9b77c5055bdedf4cb63048820921bf8a3809803f06d6c53364100",
    "size": "0x4df",
    "stateRoot": "0xe103c0d7ae99b11396c653bef61e44ddce080a12ef5debfcd276c31c7021d57b",
    "step": "331329237",
    "timestamp": "0x62be6a29",
    "totalDifficulty": "0x540229ffffffffffffffffffffffffebee4f01",
    "transactions": [
      {
        "blockHash": "0x384561f655df1192b5d2309eaa3a15252cbeb73563837cc4162c174ee7c0e6d6",
        "blockNumber": "0x54022a",
        "chainId": "0x7b",
        "condition": null,
        "creates": null,
        "from": "0x96e5820689810b1575c3ce0549bb43f438b392ca",
        "gas": "0x57a3c",
        "gasPrice": "0x174876e800",
        "hash": "0xa86e9b3ab238644355f10e5aa241f8276270a79b5af47f7c2e32df7eddcab3f9",
        "input": "0xe55060c5000000000000000000000000d99413604a6d9c08c9cd38072e20be66d86914fc0000000000000000000000008f8ec134fc3d55b16bb4bf023e817ad7d4c5ec7600000000000000000000000095298790beb442f204e3864c5bd407390518510800000000000000000000000000000000000000000000000000000000000000c0000000000000000000000000000000000000000000000000000000000000012000000000000000000000000000000000000000000000000000000000000001a00000000000000000000000000000000000000000000000000000000000000040000000000000000000000000a2ca9d03a7f0fca6ee249be34f29604903d5b5c900000000000000000000000000000000000000000000000001a888fa9814800000000000000000000000000000000000000000000000000000000000000000412290d14feef5297ebfed6d0b0e872e45ce7182943c6d827e5a3ea8427ee452c03c113c747ff5298cf5b8358c26fe8c53e3f11bf977ea8900999bd4db56bb4c7f1c000000000000000000000000000000000000000000000000000000000000000000000000000000000000000000000000000000000000000000000000000060000000000000000000000000b4fb049453f45c609168999e806c2c36e8a3ffcc000000000000000000000000951c9476efbbe57d389712845cb73d887439989100000000000000000000000000000000000000000000000000000019d81d9600",
        "nonce": "0x2e",
        "publicKey": "0x343f852a333339a47f3d59b273567757caadfb952d6a1dbdc1d7a6055b7751983235042edea5fc0a1bf035c3fe39d803307c52e88add85a2a15c229b54236919",
        "r": "0x53161cba4d9e589b9b5c595a94ba0af25c914182c978f4cacbbbc289072ddf74",
        "raw": "0xf9028d2e85174876e80083057a3c943679bbbcd653e4861f1c50cdd3229ee5ce189ac280b90224e55060c5000000000000000000000000d99413604a6d9c08c9cd38072e20be66d86914fc0000000000000000000000008f8ec134fc3d55b16bb4bf023e817ad7d4c5ec7600000000000000000000000095298790beb442f204e3864c5bd407390518510800000000000000000000000000000000000000000000000000000000000000c0000000000000000000000000000000000000000000000000000000000000012000000000000000000000000000000000000000000000000000000000000001a00000000000000000000000000000000000000000000000000000000000000040000000000000000000000000a2ca9d03a7f0fca6ee249be34f29604903d5b5c900000000000000000000000000000000000000000000000001a888fa9814800000000000000000000000000000000000000000000000000000000000000000412290d14feef5297ebfed6d0b0e872e45ce7182943c6d827e5a3ea8427ee452c03c113c747ff5298cf5b8358c26fe8c53e3f11bf977ea8900999bd4db56bb4c7f1c000000000000000000000000000000000000000000000000000000000000000000000000000000000000000000000000000000000000000000000000000060000000000000000000000000b4fb049453f45c609168999e806c2c36e8a3ffcc000000000000000000000000951c9476efbbe57d389712845cb73d887439989100000000000000000000000000000000000000000000000000000019d81d960082011aa053161cba4d9e589b9b5c595a94ba0af25c914182c978f4cacbbbc289072ddf74a014d1d93a75e70509400a8bd596e2e1852ea3b028195d5211a5aa3dcbfd9673a1",
        "s": "0x14d1d93a75e70509400a8bd596e2e1852ea3b028195d5211a5aa3dcbfd9673a1",
        "standardV": "0x1",
        "to": "0x3679bbbcd653e4861f1c50cdd3229ee5ce189ac2",
        "transactionIndex": "0x0",
        "type": "0x0",
        "v": "0x11a",
        "value": "0x0"
      }
    ],
    "transactionsRoot": "0x7718635c830bb8f2606386963141ce7290e657cfc0156502eca27c17c162887e",
    "uncles": []
  },
  "receipts": [
    {
      "blockHash": "0x384561f655df1192b5d2309eaa3a15252cbeb73563837cc4162c174ee7c0e6d6",
      "blockNumber": "0x54022a",
      "contractAddress": null,
      "cumulativeGasUsed": "0x39514",
      "effectiveGasPrice": "0x174876e800",
      "from": "0x96e5820689810b1575c3ce0549bb43f438b392ca",
      "gasUsed": "0x39514",
      "logs": [
        {
          "address": "0x8f8ec134fc3d55b16bb4bf023e817ad7d4c5ec76",
          "blockHash": "0x384561f655df1192b5d2309eaa3a15252cbeb73563837cc4162c174ee7c0e6d6",
          "blockNumber": "0x54022a",
          "data": "0x000000000000000000000000000000000000000000000000016345785d8a0000",
          "logIndex": "0x0",
          "removed": false,
          "topics": [
            "0xddf252ad1be2c89b69c2b068fc378daa952ba7f163c4a11628f55a4df523b3ef",
            "0x000000000000000000000000c231f799ebfa4e870371929023a7196ac7753710",
            "0x000000000000000000000000d99413604a6d9c08c9cd38072e20be66d86914fc"
          ],
          "transactionHash": "0xa86e9b3ab238644355f10e5aa241f8276270a79b5af47f7c2e32df7eddcab3f9",
          "transactionIndex": "0x0",
          "transactionLogIndex": "0x0",
          "type": "mined"
        },
        {
          "address": "0x8f8ec134fc3d55b16bb4bf023e817ad7d4c5ec76",
          "blockHash": "0x384561f655df1192b5d2309eaa3a15252cbeb73563837cc4162c174ee7c0e6d6",
          "blockNumber": "0x54022a",
          "data": "0x000000000000000000000000000000000000000000000000016345785d8a0000",
          "logIndex": "0x1",
          "removed": false,
          "topics": [
            "0xddf252ad1be2c89b69c2b068fc378daa952ba7f163c4a11628f55a4df523b3ef",
            "0x000000000000000000000000d99413604a6d9c08c9cd38072e20be66d86914fc",
            "0x000000000000000000000000b4fb049453f45c609168999e806c2c36e8a3ffcc"
          ],
          "transactionHash": "0xa86e9b3ab238644355f10e5aa241f8276270a79b5af47f7c2e32df7eddcab3f9",
          "transactionIndex": "0x0",
          "transactionLogIndex": "0x1",
          "type": "mined"
        },
        {
          "address": "0x8f8ec134fc3d55b16bb4bf023e817ad7d4c5ec76",
          "blockHash": "0x384561f655df1192b5d2309eaa3a15252cbeb73563837cc4162c174ee7c0e6d6",
          "blockNumber": "0x54022a",
          "data": "0x000000000000000000000000000000000000000000000000016345785d8a0000",
          "logIndex": "0x2",
          "removed": false,
          "topics": [
            "0xddf252ad1be2c89b69c2b068fc378daa952ba7f163c4a11628f55a4df523b3ef",
            "0x000000000000000000000000b4fb049453f45c609168999e806c2c36e8a3ffcc",
            "0x000000000000000000000000c32f021354ccd9f35cf13ed8d99cd839d7fc60a9"
          ],
          "transactionHash": "0xa86e9b3ab238644355f10e5aa241f8276270a79b5af47f7c2e32df7eddcab3f9",
          "transactionIndex": "0x0",
          "transactionLogIndex": "0x2",
          "type": "mined"
        },
        {
          "address": "0xa7c12d4a86ef7dbfd818cded9b3ae4985f1c3ab9",
          "blockHash": "0x384561f655df1192b5d2309eaa3a15252cbeb73563837cc4162c174ee7c0e6d6",
          "blockNumber": "0x54022a",
          "data": "0x00000000000000000000000000000000000000000000000000d3d17d78c2b20e",
          "logIndex": "0x3",
          "removed": false,
          "topics": [
            "0xddf252ad1be2c89b69c2b068fc378daa952ba7f163c4a11628f55a4df523b3ef",
            "0x000000000000000000000000c32f021354ccd9f35cf13ed8d99cd839d7fc60a9",
            "0x000000000000000000000000b4fb049453f45c609168999e806c2c36e8a3ffcc"
          ],
          "transactionHash": "0xa86e9b3ab238644355f10e5aa241f8276270a79b5af47f7c2e32df7eddcab3f9",
          "transactionIndex": "0x0",
          "transactionLogIndex": "0x3",
          "type": "mined"
        },
        {
          "address": "0xc32f021354ccd9f35cf13ed8d99cd839d7fc60a9",
          "blockHash": "0x384561f655df1192b5d2309eaa3a15252cbeb73563837cc4162c174ee7c0e6d6",
          "blockNumber": "0x54022a",
          "data": "0x000000000000000000000000000000000000000000000009d8b16508e59f4d01000000000000000000000000000000000000000000000005e291947050d983e3",
          "logIndex": "0x4",
          "removed": false,
          "topics": [
            "0x1c411e9a96e071241c2f21f7726b17ae89e3cab4c78be50e062b03a9fffbbad1"
          ],
          "transactionHash": "0xa86e9b3ab238644355f10e5aa241f8276270a79b5af47f7c2e32df7eddcab3f9",
          "transactionIndex": "0x0",
          "transactionLogIndex": "0x4",
          "type": "mined"
        },
        {
          "address": "0xc32f021354ccd9f35cf13ed8d99cd839d7fc60a9",
          "blockHash": "0x384561f655df1192b5d2309eaa3a15252cbeb73563837cc4162c174ee7c0e6d6",
          "blockNumber": "0x54022a",
          "data": "0x000000000000000000000000000000000000000000000000016345785d8a00000000000000000000000000000000000000000000000000000000000000000000000000000000000000000000000000000000000000000000000000000000000000000000000000000000000000000000000000000000000000d3d17d78c2b20e",
          "logIndex": "0x5",
          "removed": false,
          "topics": [
            "0xd78ad95fa46c994b6551d0da85fc275fe613ce37657fb8d5e3d130840159d822",
            "0x000000000000000000000000b4fb049453f45c609168999e806c2c36e8a3ffcc",
            "0x000000000000000000000000b4fb049453f45c609168999e806c2c36e8a3ffcc"
          ],
          "transactionHash": "0xa86e9b3ab238644355f10e5aa241f8276270a79b5af47f7c2e32df7eddcab3f9",
          "transactionIndex": "0x0",
          "transactionLogIndex": "0x5",
          "type": "mined"
        },
        {
          "address": "0xa7c12d4a86ef7dbfd818cded9b3ae4985f1c3ab9",
          "blockHash": "0x384561f655df1192b5d2309eaa3a15252cbeb73563837cc4162c174ee7c0e6d6",
          "blockNumber": "0x54022a",
          "data": "0x00000000000000000000000000000000000000000000000000000019d81d9600",
          "logIndex": "0x6",
          "removed": false,
          "topics": [
            "0x7fcf532c15f0a6db0bd6d0e038bea71d30d808c7d98cb3bf7268a95bf5081b65",
            "0x000000000000000000000000b4fb049453f45c609168999e806c2c36e8a3ffcc"
          ],
          "transactionHash": "0xa86e9b3ab238644355f10e5aa241f8276270a79b5af47f7c2e32df7eddcab3f9",
          "transactionIndex": "0x0",
          "transactionLogIndex": "0x6",
          "type": "mined"
        },
        {
          "address": "0xa7c12d4a86ef7dbfd818cded9b3ae4985f1c3ab9",
          "blockHash": "0x384561f655df1192b5d2309eaa3a15252cbeb73563837cc4162c174ee7c0e6d6",
          "blockNumber": "0x54022a",
          "data": "0x00000000000000000000000000000000000000000000000000d3d163a0a51c0e",
          "logIndex": "0x7",
          "removed": false,
          "topics": [
            "0xddf252ad1be2c89b69c2b068fc378daa952ba7f163c4a11628f55a4df523b3ef",
            "0x000000000000000000000000b4fb049453f45c609168999e806c2c36e8a3ffcc",
            "0x000000000000000000000000bf542f2907d9a3f8f5cfe94bf3b2d54212f397b0"
          ],
          "transactionHash": "0xa86e9b3ab238644355f10e5aa241f8276270a79b5af47f7c2e32df7eddcab3f9",
          "transactionIndex": "0x0",
          "transactionLogIndex": "0x7",
          "type": "mined"
        },
        {
          "address": "0xa2ca9d03a7f0fca6ee249be34f29604903d5b5c9",
          "blockHash": "0x384561f655df1192b5d2309eaa3a15252cbeb73563837cc4162c174ee7c0e6d6",
          "blockNumber": "0x54022a",
          "data": "0x0000000000000000000000000000000000000000000000000c8018b5fa1bfaeb",
          "logIndex": "0x8",
          "removed": false,
          "topics": [
            "0xddf252ad1be2c89b69c2b068fc378daa952ba7f163c4a11628f55a4df523b3ef",
            "0x000000000000000000000000bf542f2907d9a3f8f5cfe94bf3b2d54212f397b0",
            "0x000000000000000000000000d99413604a6d9c08c9cd38072e20be66d86914fc"
          ],
          "transactionHash": "0xa86e9b3ab238644355f10e5aa241f8276270a79b5af47f7c2e32df7eddcab3f9",
          "transactionIndex": "0x0",
          "transactionLogIndex": "0x8",
          "type": "mined"
        },
        {
          "address": "0xbf542f2907d9a3f8f5cfe94bf3b2d54212f397b0",
          "blockHash": "0x384561f655df1192b5d2309eaa3a15252cbeb73563837cc4162c174ee7c0e6d6",
          "blockNumber": "0x54022a",
          "data": "0x000000000000000000000000000000000000000000000002f66214a29f4ff2d800000000000000000000000000000000000000000000000032e00266877f86f8",
          "logIndex": "0x9",
          "removed": false,
          "topics": [
            "0x1c411e9a96e071241c2f21f7726b17ae89e3cab4c78be50e062b03a9fffbbad1"
          ],
          "transactionHash": "0xa86e9b3ab238644355f10e5aa241f8276270a79b5af47f7c2e32df7eddcab3f9",
          "transactionIndex": "0x0",
          "transactionLogIndex": "0x9",
          "type": "mined"
        },
        {
          "address": "0xbf542f2907d9a3f8f5cfe94bf3b2d54212f397b0",
          "blockHash": "0x384561f655df1192b5d2309eaa3a15252cbeb73563837cc4162c174ee7c0e6d6",
          "blockNumber": "0x54022a",
          "data": "0x000000000000000000000000000000000000000000000000000000000000000000000000000000000000000000000000000000000000000000d3d163a0a51c0e0000000000000000000000000000000000000000000000000c8018b5fa1bfaeb0000000000000000000000000000000000000000000000000000000000000000",
          "logIndex": "0xa",
          "removed": false,
          "topics": [
            "0xd78ad95fa46c994b6551d0da85fc275fe613ce37657fb8d5e3d130840159d822",
            "0x000000000000000000000000b4fb049453f45c609168999e806c2c36e8a3ffcc",
            "0x000000000000000000000000d99413604a6d9c08c9cd38072e20be66d86914fc"
          ],
          "transactionHash": "0xa86e9b3ab238644355f10e5aa241f8276270a79b5af47f7c2e32df7eddcab3f9",
          "transactionIndex": "0x0",
          "transactionLogIndex": "0xa",
          "type": "mined"
        },
        {
          "address": "0xa2ca9d03a7f0fca6ee249be34f29604903d5b5c9",
          "blockHash": "0x384561f655df1192b5d2309eaa3a15252cbeb73563837cc4162c174ee7c0e6d6",
          "blockNumber": "0x54022a",
          "data": "0x0000000000000000000000000000000000000000000000000c8018b5fa1bfaeb",
          "logIndex": "0xb",
          "removed": false,
          "topics": [
            "0xddf252ad1be2c89b69c2b068fc378daa952ba7f163c4a11628f55a4df523b3ef",
            "0x000000000000000000000000d99413604a6d9c08c9cd38072e20be66d86914fc",
            "0x00000000000000000000000095298790beb442f204e3864c5bd4073905185108"
          ],
          "transactionHash": "0xa86e9b3ab238644355f10e5aa241f8276270a79b5af47f7c2e32df7eddcab3f9",
          "transactionIndex": "0x0",
          "transactionLogIndex": "0xb",
          "type": "mined"
        },
        {
          "address": "0x3679bbbcd653e4861f1c50cdd3229ee5ce189ac2",
          "blockHash": "0x384561f655df1192b5d2309eaa3a15252cbeb73563837cc4162c174ee7c0e6d6",
          "blockNumber": "0x54022a",
          "data": "0x0000000000000000000000008f8ec134fc3d55b16bb4bf023e817ad7d4c5ec7600000000000000000000000095298790beb442f204e3864c5bd40739051851080000000000000000000000001e3ac8530fbb5554bddfc77ffed47dc0e56063b100000000000000000000000000000000000000000000000000000000000000e00000000000000000000000000000000000000000000000000000000000000140000000000000000000000000000000000000000000000000016345785d8a00000000000000000000000000000000000000000000000000000c8018b5fa1bfaeb0000000000000000000000000000000000000000000000000000000000000040000000000000000000000000a2ca9d03a7f0fca6ee249be34f29604903d5b5c900000000000000000000000000000000000000000000000001a888fa981480000000000000000000000000000000000000000000000000000000000000000060000000000000000000000000b4fb049453f45c609168999e806c2c36e8a3ffcc000000000000000000000000951c9476efbbe57d389712845cb73d887439989100000000000000000000000000000000000000000000000000000019d81d9600",
          "logIndex": "0xc",
          "removed": false,
          "topics": [
            "0x56afc5839271b796eaa6426e31b9ad823d483abb96183586e52970a9602b3905",
            "0x429db7d737f66616bc869da3985a51d4bbf9a0e09b3a55d04dcfd4ca751f8bfc"
          ],
          "transactionHash": "0xa86e9b3ab238644355f10e5aa241f8276270a79b5af47f7c2e32df7eddcab3f9",
          "transactionIndex": "0x0",
          "transactionLogIndex": "0xc",
          "type": "mined"
        }
      ],
      "logsBloom": "0x00200000000000000000800082001000000000000000000000000002000040000000000800000000000000000000000200000000004000000000000000000000000000000000000000000008000010200000020000400020000000000000000000001010000000000000000000000000000000000000140000000010000000090000004000000000008000000000008000000000000000080000004000010000000000000000000000000000200000000000000000100008000000000000804000000082000000000000004000000020000000020000001040000002000000000000000000000000000000200000000100020001a02000020001020001002000",
      "status": "0x1",
      "to": "0x3679bbbcd653e4861f1c50cdd3229ee5ce189ac2",
      "transactionHash": "0xa86e9b3ab238644355f10e5aa241f8276270a79b5af47f7c2e32df7eddcab3f9",
      "transactionIndex": "0x0",
      "type": "0x0"
    }
  ]
}
