{
  "transactionIndex": 0,
  "block": {
    "difficulty": "0x2",
    "extraData": "0xd98301090a846765746889676f312e31352e3133856c696e7578000000000000fd5c4277ac839394875c217f9f7e89ae533a846a4a74c24027502693bfb1662738c08797f3ba94cd4bb004433da11e04bf52f3e5fa5b4a56f0fdf8826254eff701",
    "gasLimit": "0xe4e1c0",
    "gasUsed": "0x47e83",
    "hash": "0xd63790e2b9430e7cc69a256e959a5acd3eac2dabcd356033b46a979a438ec06c",
    "logsBloom": "0x0400804008200000000000c000008000000000000000000020000000010000000000000000000000100000000008000000000040000000000000000000200000000000000000000000000008008020000400000000100000000000000800000000000000000000050000000002000000000090000000400000000090080000000000002000000000000000000000000000400000020000000000008000000200020000000000000000000000000000000220000000010000000000000000001000000002000000000000000000000000000000400000000000000000000000040010000002000000000000000000000000000000004000000000400008010000",
    "miner": "0x0000000000000000000000000000000000000000",
    "mixHash": "0x0000000000000000000000000000000000000000000000000000000000000000",
    "nonce": "0x0000000000000000",
    "number": "0x4596ed",
    "parentHash": "0x12ecc88a0a6d8938b35c2a391f06d398a974d8c7f8009876d4a6835b0c6beea1",
    "receiptsRoot": "0x116b2381c0a4d0ccc3122dc888fef607c5b0abd7ad7310aff751d79938bf9ab7",
    "sha3Uncles": "0x1dcc4de8dec75d7aab85b567b6ccd41ad312451b948a7413f0a142fd40d49347",
    "size": "0x4f9",
    "stateRoot": "0x423af44c24f64b695564576fde939aa9172899871c155a986b060188b1c2257a",
    "timestamp": "0x6234138b",
    "totalDifficulty": "0x8b2ddb",
    "transactions": [
      {
        "blockHash": "0xd63790e2b9430e7cc69a256e959a5acd3eac2dabcd356033b46a979a438ec06c",
        "blockNumber": "0x4596ed",
        "from": "0x1695a8ba3f3313f9a9ed075df09c9fcc60840ba1",
        "gas": "0x4d327",
        "gasPrice": "0xf4240",
        "hash": "0x5b733943799480edb4f76af69e985297a9b942c03234091f811f831c5e2143ca",
        "index": "0x4596ec",
        "input": "0x9fbf10fc0000000000000000000000000000000000000000000000000000000000000002000000000000000000000000000000000000000000000000000000000000000100000000000000000000000000000000000000000000000000000000000000020000000000000000000000001695a8ba3f3313f9a9ed075df09c9fcc60840ba100000000000000000000000000000000000000000000000000000006fa95d97500000000000000000000000000000000000000000000000000000006f1a7052b000000000000000000000000000000000000000000000000000000000000012000000000000000000000000000000000000000000000000000000000000001c00000000000000000000000000000000000000000000000000000000000000200000000000000000000000000000000000000000000000000000000000000000000000000000000000000000000000000000000000000000000018042f26ae800000000000000000000000000000000000000000000000000000000000000006000000000000000000000000000000000000000000000000000000000000000141695a8ba3f3313f9a9ed075df09c9fcc60840ba100000000000000000000000000000000000000000000000000000000000000000000000000000000000000141695a8ba3f3313f9a9ed075df09c9fcc60840ba10000000000000000000000000000000000000000000000000000000000000000000000000000000000000000",
        "l1BlockNumber": "0xdbdaaa",
        "l1Timestamp": "0x6234138b",
        "l1TxOrigin": null,
        "nonce": "0xa",
        "queueIndex": null,
        "queueOrigin": "sequencer",
        "r": "0xf0e88a1c026623e0e7f0f52b0aaf6dbdb94f62c6a8471e0c58f6e2ce33b91965",
        "rawTransaction": "0xf902900a830f42408304d32794b0d502e938ed5f4df2e681fe6e419ff29631d62b8701f3b2857fd2d4b902249fbf10fc0000000000000000000000000000000000000000000000000000000000000002000000000000000000000000000000000000000000000000000000000000000100000000000000000000000000000000000000000000000000000000000000020000000000000000000000001695a8ba3f3313f9a9ed075df09c9fcc60840ba100000000000000000000000000000000000000000000000000000006fa95d97500000000000000000000000000000000000000000000000000000006f1a7052b000000000000000000000000000000000000000000000000000000000000012000000000000000000000000000000000000000000000000000000000000001c00000000000000000000000000000000000000000000000000000000000000200000000000000000000000000000000000000000000000000000000000000000000000000000000000000000000000000000000000000000000018042f26ae800000000000000000000000000000000000000000000000000000000000000006000000000000000000000000000000000000000000000000000000000000000141695a8ba3f3313f9a9ed075df09c9fcc60840ba100000000000000000000000000000000000000000000000000000000000000000000000000000000000000141695a8ba3f3313f9a9ed075df09c9fcc60840ba1000000000000000000000000000000000000000000000000000000000000000000000000000000000000000038a0f0e88a1c026623e0e7f0f52b0aaf6dbdb94f62c6a8471e0c58f6e2ce33b91965a07fff0b212fca630214db438dffd4dfe33cd1370a7d492327b8e166c189665e01",
        "s": "0x7fff0b212fca630214db438dffd4dfe33cd1370a7d492327b8e166c189665e01",
        "to": "0xb0d502e938ed5f4df2e681fe6e419ff29631d62b",
        "transactionIndex": "0x0",
        "v": "0x38",
        "value": "0x1f3b2857fd2d4"
      }
    ],
    "transactionsRoot": "0xd8acc3139afe1102a01552b156f1931ebe39405d140814dce6eb9b1414872517",
    "uncles": []
  },
  "receipts": [
    {
      "blockHash": "0xd63790e2b9430e7cc69a256e959a5acd3eac2dabcd356033b46a979a438ec06c",
      "blockNumber": "0x4596ed",
      "contractAddress": null,
      "cumulativeGasUsed": "0x47e83",
      "from": "0x1695a8ba3f3313f9a9ed075df09c9fcc60840ba1",
      "gasUsed": "0x47e83",
      "l1Fee": "0x14fc42bffed2f",
      "l1FeeScalar": "1.24",
      "l1GasPrice": "0x9a8efac2f",
      "l1GasUsed": "0x1c08",
      "logs": [
        {
          "address": "0xdecc0c09c3b5f6e92ef4184125d5648a66e35298",
          "blockHash": "0xd63790e2b9430e7cc69a256e959a5acd3eac2dabcd356033b46a979a438ec06c",
          "blockNumber": "0x4596ed",
          "data": "0x000000000000000000000000000000000000000000000000000000000000000200000000000000000000000000000000000000000000000000000000000000020000000000000000000000001695a8ba3f3313f9a9ed075df09c9fcc60840ba100000000000000000000000000000000000000000000000000000006f8d92fe3000000000000000000000000000000000000000000000000000000000226ef3c0000000000000000000000000000000000000000000000000000000000aa3e2e0000000000000000000000000000000000000000000000000000000000449ad90000000000000000000000000000000000000000000000000000000000cdd08b",
          "logIndex": "0x0",
          "removed": false,
          "topics": [
            "0x34660fc8af304464529f48a778e03d03e4d34bcd5f9b6f0cfbf3cd238c642f7f"
          ],
          "transactionHash": "0x5b733943799480edb4f76af69e985297a9b942c03234091f811f831c5e2143ca",
          "transactionIndex": "0x0"
        },
        {
          "address": "0x7f5c764cbc14f9669b88837ca1490cca17c31607",
          "blockHash": "0xd63790e2b9430e7cc69a256e959a5acd3eac2dabcd356033b46a979a438ec06c",
          "blockNumber": "0x4596ed",
          "data": "0x00000000000000000000000000000000000000000000000000000006fa95d975",
          "logIndex": "0x1",
          "removed": false,
          "topics": [
            "0xddf252ad1be2c89b69c2b068fc378daa952ba7f163c4a11628f55a4df523b3ef",
            "0x0000000000000000000000001695a8ba3f3313f9a9ed075df09c9fcc60840ba1",
            "0x000000000000000000000000decc0c09c3b5f6e92ef4184125d5648a66e35298"
          ],
          "transactionHash": "0x5b733943799480edb4f76af69e985297a9b942c03234091f811f831c5e2143ca",
          "transactionIndex": "0x0"
        },
        {
          "address": "0x7f5c764cbc14f9669b88837ca1490cca17c31607",
          "blockHash": "0xd63790e2b9430e7cc69a256e959a5acd3eac2dabcd356033b46a979a438ec06c",
          "blockNumber": "0x4596ed",
          "data": "0xfffffffffffffffffffffffffffffffffffffffffffffffffffffff20ad77aca",
          "logIndex": "0x2",
          "removed": false,
          "topics": [
            "0x8c5be1e5ebec7d5bd14f71427d1e84f3dd0314c0f7b2291e5b200ac8c7c3b925",
            "0x0000000000000000000000001695a8ba3f3313f9a9ed075df09c9fcc60840ba1",
            "0x000000000000000000000000b0d502e938ed5f4df2e681fe6e419ff29631d62b"
          ],
          "transactionHash": "0x5b733943799480edb4f76af69e985297a9b942c03234091f811f831c5e2143ca",
          "transactionIndex": "0x0"
        },
        {
          "address": "0xdecc0c09c3b5f6e92ef4184125d5648a66e35298",
          "blockHash": "0xd63790e2b9430e7cc69a256e959a5acd3eac2dabcd356033b46a979a438ec06c",
          "blockNumber": "0x4596ed",
          "data": "0x000000000000000000000000000000000000000000000000000000000000000200000000000000000000000000000000000000000000000000000000000000020000000000000000000000000000000000000000000000000000000000000000000000000000000000000000000000000000000000000000000000a00bf0085d",
          "logIndex": "0x3",
          "removed": false,
          "topics": [
            "0x6939f93e3f21cf1362eb17155b740277de5687dae9a83a85909fd71da95944e7"
          ],
          "transactionHash": "0x5b733943799480edb4f76af69e985297a9b942c03234091f811f831c5e2143ca",
          "transactionIndex": "0x0"
        },
        {
          "address": "0x66a71dcef29a0ffbdbe3c6a460a3b5bc225cd675",
          "blockHash": "0xd63790e2b9430e7cc69a256e959a5acd3eac2dabcd356033b46a979a438ec06c",
          "blockNumber": "0x4596ed",
          "data": "0x00000000000000000000000000000000000000000000000000000000000000020000000000000000000000000000000000000000000000000000000000000006000000000000000000000000000000000000000000000000000000000000000100000000000000000000000000000000000000000000000000000000000000800000000000000000000000000000000000000000000000000000000000000056000200000000000000000000000000000000000000000000000000000000000347d800000000000000000000000000000000000000000000000000018042f26ae8001695a8ba3f3313f9a9ed075df09c9fcc60840ba100000000000000000000",
          "logIndex": "0x4",
          "removed": false,
          "topics": [
            "0xb8a7262132db1f61626604a31c3de81dc1a5bb0f1511dfa70d626ab1b88b52c2"
          ],
          "transactionHash": "0x5b733943799480edb4f76af69e985297a9b942c03234091f811f831c5e2143ca",
          "transactionIndex": "0x0"
        },
        {
          "address": "0x66a71dcef29a0ffbdbe3c6a460a3b5bc225cd675",
          "blockHash": "0xd63790e2b9430e7cc69a256e959a5acd3eac2dabcd356033b46a979a438ec06c",
          "blockNumber": "0x4596ed",
          "data": "0x0000000000000000000000000000000000000000000000000000000000000002000000000000000000000000000000000000000000000000000000000000004000000000000000000000000000000000000000000000000000000000000002500000000000000006701a95707a0290ac8b90b3719e8ee5b2103608836694340fc020c5e6b96567843da2df01b2ce1eb600000000000000000000000000000000000000000000000000000000000000010000000000000000000000000000000000000000000000000000000000000001000000000000000000000000000000000000000000000000000000000000000200000000000000000000000000000000000000000000000000000000000000000000000000000000000000000000000000000000000000000000000000000000000000000000000000000000000000000000000000000000000000a00bf0085d00000000000000000000000000000000000000000000000000000006f8d92fe30000000000000000000000000000000000000000000000000000000000aa3e2e000000000000000000000000000000000000000000000000000000000226ef3c0000000000000000000000000000000000000000000000000000000000cdd08b0000000000000000000000000000000000000000000000000000000000449ad900000000000000000000000000000000000000000000000000000006fbeef82600000000000000000000000000000000000000000000000000000000000001c0000000000000000000000000000000000000000000000000000000000000020000000000000000000000000000000000000000000000000000000000000000141695a8ba3f3313f9a9ed075df09c9fcc60840ba1000000000000000000000000000000000000000000000000000000000000000000000000000000000000000000000000000000000000000000000000",
          "logIndex": "0x5",
          "removed": false,
          "topics": [
            "0xe8d23d927749ec8e512eb885679c2977d57068839d8cca1a85685dbbea0648f6"
          ],
          "transactionHash": "0x5b733943799480edb4f76af69e985297a9b942c03234091f811f831c5e2143ca",
          "transactionIndex": "0x0"
        },
        {
          "address": "0xa96b576f3f117158176e396467d591a1f5dba9df",
          "blockHash": "0xd63790e2b9430e7cc69a256e959a5acd3eac2dabcd356033b46a979a438ec06c",
          "blockNumber": "0x4596ed",
          "data": "0x000000000000000000000000000000000000000000000000000000000000000200000000000000000000000000000000000000000000000000000000000000010000000000000000000000000000000000000000000000000000000000000014",
          "logIndex": "0x6",
          "removed": false,
          "topics": [
            "0xf5f7eeb9c1ffb10aced9d0a5354641e9bccdde560963d05f8d26ad4a460c89a2"
          ],
          "transactionHash": "0x5b733943799480edb4f76af69e985297a9b942c03234091f811f831c5e2143ca",
          "transactionIndex": "0x0"
        },
        {
          "address": "0x701a95707a0290ac8b90b3719e8ee5b210360883",
          "blockHash": "0xd63790e2b9430e7cc69a256e959a5acd3eac2dabcd356033b46a979a438ec06c",
          "blockNumber": "0x4596ed",
          "data": "0x00000000000000000000000000000000000000000000000000000000000000010000000000000000000000000000000000000000000000000000000000000006",
          "logIndex": "0x7",
          "removed": false,
          "topics": [
            "0x8d3ee0df6a4b7e82a7f20a763f1c6826e6176323e655af64f32318827d2112d4"
          ],
          "transactionHash": "0x5b733943799480edb4f76af69e985297a9b942c03234091f811f831c5e2143ca",
          "transactionIndex": "0x0"
        }
      ],
      "logsBloom": "0x0400804008200000000000c000008000000000000000000020000000010000000000000000000000100000000008000000000040000000000000000000200000000000000000000000000008008020000400000000100000000000000800000000000000000000050000000002000000000090000000400000000090080000000000002000000000000000000000000000400000020000000000008000000200020000000000000000000000000000000220000000010000000000000000001000000002000000000000000000000000000000400000000000000000000000040010000002000000000000000000000000000000004000000000400008010000",
      "status": "0x1",
      "to": "0xb0d502e938ed5f4df2e681fe6e419ff29631d62b",
      "transactionHash": "0x5b733943799480edb4f76af69e985297a9b942c03234091f811f831c5e2143ca",
      "transactionIndex": "0x0"
    }
  ]
}
