{
  "transactionIndex": 0,
  "block": {
    "difficulty": "0x2",
    "extraData": "0xd98301090a846765746889676f312e31352e3133856c696e757800000000000076e5ae0b9109ba678ffcbbcbcf544e7038d15688514449d5f1f51acc576e0d613246de23d7c110bcbd89c5ca1e1fbe03de806db06263663c9cc091126417414101",
    "gasLimit": "0xe4e1c0",
    "gasUsed": "0x55f28",
    "hash": "0xf19da466933d49f63e66fa79414947e7a12ada398ddf833669c96e48213d9f22",
    "logsBloom": "0x0000004000200000000000000100000200000000000000003000000000000000000000000000000018000000000800000000000200000000000000000020000000000000000000000000000800c000000000000000000000000000000800000000000100000000010000000002000000000000040000400000000010000008000000002004080000000000000000000200400000200000000000008000000300020000000000000000000000000100000020000000000000000000000000001004800002000010000000000000080000000000400002000000040000800000000010000000000000000000000200000080000000000000000000000008000000",
    "miner": "0x0000000000000000000000000000000000000000",
    "mixHash": "0x0000000000000000000000000000000000000000000000000000000000000000",
    "nonce": "0x0000000000000000",
    "number": "0x1fefe4",
    "parentHash": "0x2456111f3feace57760822385423a305b209ce624fa4c2299425dc2c196d7078",
    "receiptsRoot": "0xc2c11a098fdf5be4e18da69d2bd07b27f482f1374b74640a3794af599097a39f",
    "sha3Uncles": "0x1dcc4de8dec75d7aab85b567b6ccd41ad312451b948a7413f0a142fd40d49347",
    "size": "0x539",
    "stateRoot": "0xf5462c5e4f42afe15254a42c5bdd9829203bdce2fe2daf85d08376317210c155",
    "timestamp": "0x625998a3",
    "totalDifficulty": "0x3fdfc9",
    "transactions": [
      {
        "blockHash": "0xf19da466933d49f63e66fa79414947e7a12ada398ddf833669c96e48213d9f22",
        "blockNumber": "0x1fefe4",
        "from": "0xba5c9233d6e44586e849f69f819997399df704f0",
        "gas": "0x5c123",
        "gasPrice": "0x2710",
        "hash": "0x6575e66a5ff6c90ccdfb1941082f27669dd146f38395764074f129fc3fee7316",
        "index": "0x1fefe3",
        "input": "0x9fbf10fc000000000000000000000000000000000000000000000000000000000000271100000000000000000000000000000000000000000000000000000000000000010000000000000000000000000000000000000000000000000000000000000001000000000000000000000000ba5c9233d6e44586e849f69f819997399df704f00000000000000000000000000000000000000000000000000000000002faf0800000000000000000000000000000000000000000000000000000000002ebae40000000000000000000000000000000000000000000000000000000000000012000000000000000000000000000000000000000000000000000000000000001a000000000000000000000000000000000000000000000000000000000000001e00000000000000000000000000000000000000000000000000000000000030d40000000000000000000000000000000000000000000000000000000000000000000000000000000000000000000000000000000000000000000000000000000600000000000000000000000000000000000000000000000000000000000000000000000000000000000000000000000000000000000000000000000000000001478406477bc8bb7150d12a1fa20baf1982e46d84d00000000000000000000000000000000000000000000000000000000000000000000000000000000000000600000000000000000000000000000000000000000000000000000000000000001000000000000000000000000ba1f9c3e874f9c65dd04eb09789100cef23b081c000000000000000000000000000000000000000000000000000000000000002a",
        "l1BlockNumber": "0x1d98f78",
        "l1Timestamp": "0x625998a3",
        "l1TxOrigin": null,
        "nonce": "0xa",
        "queueIndex": null,
        "queueOrigin": "sequencer",
        "r": "0xdad26b8cfb4bc18c60881e3597336f7a04bf739ea799b4af96b08a8f336538ca",
        "rawTransaction": "0xf902d00a8227108305c12394cc68641528b948642bde1729805d6cf1decb0b0087037c19aaf9cea8b902649fbf10fc000000000000000000000000000000000000000000000000000000000000271100000000000000000000000000000000000000000000000000000000000000010000000000000000000000000000000000000000000000000000000000000001000000000000000000000000ba5c9233d6e44586e849f69f819997399df704f00000000000000000000000000000000000000000000000000000000002faf0800000000000000000000000000000000000000000000000000000000002ebae40000000000000000000000000000000000000000000000000000000000000012000000000000000000000000000000000000000000000000000000000000001a000000000000000000000000000000000000000000000000000000000000001e00000000000000000000000000000000000000000000000000000000000030d40000000000000000000000000000000000000000000000000000000000000000000000000000000000000000000000000000000000000000000000000000000600000000000000000000000000000000000000000000000000000000000000000000000000000000000000000000000000000000000000000000000000000001478406477bc8bb7150d12a1fa20baf1982e46d84d00000000000000000000000000000000000000000000000000000000000000000000000000000000000000600000000000000000000000000000000000000000000000000000000000000001000000000000000000000000ba1f9c3e874f9c65dd04eb09789100cef23b081c000000000000000000000000000000000000000000000000000000000000002a81ada0dad26b8cfb4bc18c60881e3597336f7a04bf739ea799b4af96b08a8f336538caa03f62d45f0b34f94441c734874a7f7b5f2f5947102f6ceafbc89b74db99905b0f",
        "s": "0x3f62d45f0b34f94441c734874a7f7b5f2f5947102f6ceafbc89b74db99905b0f",
        "to": "0xcc68641528b948642bde1729805d6cf1decb0b00",
        "transactionIndex": "0x0",
        "v": "0xad",
        "value": "0x37c19aaf9cea8"
      }
    ],
    "transactionsRoot": "0x1ace75f94a02f3bb2cd87b6fff1c3eca753b8163dcb097571025e005176abb6b",
    "uncles": []
  },
  "receipts": [
    {
      "blockHash": "0xf19da466933d49f63e66fa79414947e7a12ada398ddf833669c96e48213d9f22",
      "blockNumber": "0x1fefe4",
      "contractAddress": null,
      "cumulativeGasUsed": "0x55f28",
      "from": "0xba5c9233d6e44586e849f69f819997399df704f0",
      "gasUsed": "0x55f28",
      "l1Fee": "0x1495b",
      "l1FeeScalar": "1.5",
      "l1GasPrice": "0x7",
      "l1GasUsed": "0x1f5e",
      "logs": [
        {
          "address": "0x5f8cb7a8ce93a295ef16bf9da748ebb4c6ee73b1",
          "blockHash": "0xf19da466933d49f63e66fa79414947e7a12ada398ddf833669c96e48213d9f22",
          "blockNumber": "0x1fefe4",
          "data": "0x00000000000000000000000000000000000000000000000000000000000027110000000000000000000000000000000000000000000000000000000000000001000000000000000000000000ba5c9233d6e44586e849f69f819997399df704f00000000000000000000000000000000000000000000000000000000002fa7b50000000000000000000000000000000000000000000000000000000000000065800000000000000000000000000000000000000000000000000000000000005dc000000000000000000000000000000000000000000000000000000000000177000000000000000000000000000000000000000000000000000000000000057e4",
          "logIndex": "0x0",
          "removed": false,
          "topics": [
            "0x34660fc8af304464529f48a778e03d03e4d34bcd5f9b6f0cfbf3cd238c642f7f"
          ],
          "transactionHash": "0x6575e66a5ff6c90ccdfb1941082f27669dd146f38395764074f129fc3fee7316",
          "transactionIndex": "0x0"
        },
        {
          "address": "0x567f39d9e6d02078f357658f498f80ef087059aa",
          "blockHash": "0xf19da466933d49f63e66fa79414947e7a12ada398ddf833669c96e48213d9f22",
          "blockNumber": "0x1fefe4",
          "data": "0x0000000000000000000000000000000000000000000000000000000002faf080",
          "logIndex": "0x1",
          "removed": false,
          "topics": [
            "0xddf252ad1be2c89b69c2b068fc378daa952ba7f163c4a11628f55a4df523b3ef",
            "0x000000000000000000000000ba5c9233d6e44586e849f69f819997399df704f0",
            "0x0000000000000000000000005f8cb7a8ce93a295ef16bf9da748ebb4c6ee73b1"
          ],
          "transactionHash": "0x6575e66a5ff6c90ccdfb1941082f27669dd146f38395764074f129fc3fee7316",
          "transactionIndex": "0x0"
        },
        {
          "address": "0x567f39d9e6d02078f357658f498f80ef087059aa",
          "blockHash": "0xf19da466933d49f63e66fa79414947e7a12ada398ddf833669c96e48213d9f22",
          "blockNumber": "0x1fefe4",
          "data": "0xfffffffffffffffffffffffffffffffffffffffffffffffffffffffffa0a1eff",
          "logIndex": "0x2",
          "removed": false,
          "topics": [
            "0x8c5be1e5ebec7d5bd14f71427d1e84f3dd0314c0f7b2291e5b200ac8c7c3b925",
            "0x000000000000000000000000ba5c9233d6e44586e849f69f819997399df704f0",
            "0x000000000000000000000000cc68641528b948642bde1729805d6cf1decb0b00"
          ],
          "transactionHash": "0x6575e66a5ff6c90ccdfb1941082f27669dd146f38395764074f129fc3fee7316",
          "transactionIndex": "0x0"
        },
        {
          "address": "0x5f8cb7a8ce93a295ef16bf9da748ebb4c6ee73b1",
          "blockHash": "0xf19da466933d49f63e66fa79414947e7a12ada398ddf833669c96e48213d9f22",
          "blockNumber": "0x1fefe4",
          "data": "0x000000000000000000000000000000000000000000000000000000000000271100000000000000000000000000000000000000000000000000000000000000010000000000000000000000000000000000000000000000000000000005f5e75d000000000000000000000000000000000000000000000000000000746d4e8f1c",
          "logIndex": "0x3",
          "removed": false,
          "topics": [
            "0x6939f93e3f21cf1362eb17155b740277de5687dae9a83a85909fd71da95944e7"
          ],
          "transactionHash": "0x6575e66a5ff6c90ccdfb1941082f27669dd146f38395764074f129fc3fee7316",
          "transactionIndex": "0x0"
        },
        {
          "address": "0x5fa09a6e7c86f4c92f925a4e470a7b97759975d1",
          "blockHash": "0xf19da466933d49f63e66fa79414947e7a12ada398ddf833669c96e48213d9f22",
          "blockNumber": "0x1fefe4",
          "data": "0x0000000000000000000000000000000000000000000000000000000000002711000000000000000000000000000000000000000000000000000000000000000200000000000000000000000000000000000000000000000000000000000000010000000000000000000000000000000000000000000000000000000000000080000000000000000000000000000000000000000000000000000000000000002200010000000000000000000000000000000000000000000000000000000000065518000000000000000000000000000000000000000000000000000000000000",
          "logIndex": "0x4",
          "removed": false,
          "topics": [
            "0xb8a7262132db1f61626604a31c3de81dc1a5bb0f1511dfa70d626ab1b88b52c2"
          ],
          "transactionHash": "0x6575e66a5ff6c90ccdfb1941082f27669dd146f38395764074f129fc3fee7316",
          "transactionIndex": "0x0"
        },
        {
          "address": "0x5fa09a6e7c86f4c92f925a4e470a7b97759975d1",
          "blockHash": "0xf19da466933d49f63e66fa79414947e7a12ada398ddf833669c96e48213d9f22",
          "blockNumber": "0x1fefe4",
          "data": "0x0000000000000000000000000000000000000000000000000000000000002711000000000000000000000000000000000000000000000000000000000000004000000000000000000000000000000000000000000000000000000000000002b0000000000000000287e8c9e141f896a4bb517e10a3cd6d610d597aaacbb03bdbc989fc00283cf9ddcd3d711fe48a4cce0000000000000000000000000000000000000000000000000000000000000001000000000000000000000000000000000000000000000000000000000000000100000000000000000000000000000000000000000000000000000000000000010000000000000000000000000000000000000000000000000000000000030d400000000000000000000000000000000000000000000000000000000005f5e75d000000000000000000000000000000000000000000000000000000746d4e8f1c0000000000000000000000000000000000000000000000000000000002fa7b5000000000000000000000000000000000000000000000000000000000000005dc000000000000000000000000000000000000000000000000000000000000065800000000000000000000000000000000000000000000000000000000000057e400000000000000000000000000000000000000000000000000000000000017700000000000000000000000000000000000000000000000000000000002fa9ef400000000000000000000000000000000000000000000000000000000000001c00000000000000000000000000000000000000000000000000000000000000200000000000000000000000000000000000000000000000000000000000000001478406477bc8bb7150d12a1fa20baf1982e46d84d00000000000000000000000000000000000000000000000000000000000000000000000000000000000000600000000000000000000000000000000000000000000000000000000000000001000000000000000000000000ba1f9c3e874f9c65dd04eb09789100cef23b081c000000000000000000000000000000000000000000000000000000000000002a00000000000000000000000000000000",
          "logIndex": "0x5",
          "removed": false,
          "topics": [
            "0xe8d23d927749ec8e512eb885679c2977d57068839d8cca1a85685dbbea0648f6"
          ],
          "transactionHash": "0x6575e66a5ff6c90ccdfb1941082f27669dd146f38395764074f129fc3fee7316",
          "transactionIndex": "0x0"
        },
        {
          "address": "0x05ecf3c65111261007ce5f47dd256696d0453eb4",
          "blockHash": "0xf19da466933d49f63e66fa79414947e7a12ada398ddf833669c96e48213d9f22",
          "blockNumber": "0x1fefe4",
          "data": "0x000000000000000000000000000000000000000000000000000000000000271100000000000000000000000000000000000000000000000000000000000000010000000000000000000000000000000000000000000000000000000000000009",
          "logIndex": "0x6",
          "removed": false,
          "topics": [
            "0xf5f7eeb9c1ffb10aced9d0a5354641e9bccdde560963d05f8d26ad4a460c89a2"
          ],
          "transactionHash": "0x6575e66a5ff6c90ccdfb1941082f27669dd146f38395764074f129fc3fee7316",
          "transactionIndex": "0x0"
        },
        {
          "address": "0x87e8c9e141f896a4bb517e10a3cd6d610d597aaa",
          "blockHash": "0xf19da466933d49f63e66fa79414947e7a12ada398ddf833669c96e48213d9f22",
          "blockNumber": "0x1fefe4",
          "data": "0x00000000000000000000000000000000000000000000000000000000000000010000000000000000000000000000000000000000000000000000000000000002",
          "logIndex": "0x7",
          "removed": false,
          "topics": [
            "0x8d3ee0df6a4b7e82a7f20a763f1c6826e6176323e655af64f32318827d2112d4"
          ],
          "transactionHash": "0x6575e66a5ff6c90ccdfb1941082f27669dd146f38395764074f129fc3fee7316",
          "transactionIndex": "0x0"
        }
      ],
      "logsBloom": "0x0000004000200000000000000100000200000000000000003000000000000000000000000000000018000000000800000000000200000000000000000020000000000000000000000000000800c000000000000000000000000000000800000000000100000000010000000002000000000000040000400000000010000008000000002004080000000000000000000200400000200000000000008000000300020000000000000000000000000100000020000000000000000000000000001004800002000010000000000000080000000000400002000000040000800000000010000000000000000000000200000080000000000000000000000008000000",
      "status": "0x1",
      "to": "0xcc68641528b948642bde1729805d6cf1decb0b00",
      "transactionHash": "0x6575e66a5ff6c90ccdfb1941082f27669dd146f38395764074f129fc3fee7316",
      "transactionIndex": "0x0"
    }
  ]
}
