{
  "transactionIndex": 0,
  "block": {
    "difficulty": "0x2",
    "extraData": "0xd98301090a846765746889676f312e31352e3133856c696e7578000000000000fee7d51c7adbb352ca1466fc436417a3c717df404ff43bdbf883c739d1d15e02092a40d3ad373857f9558f0d99c27fedee6ae0f2d4023e89c4b87314a82f446c00",
    "gasLimit": "0xe4e1c0",
    "gasUsed": "0x4663e",
    "hash": "0xc5265aa60712e609b54556e500d1642700ae4f54d8f5013541a849237888ed0a",
    "logsBloom": "0x00000000000000000000000000000000000000000000000000000000000000000000100000000000000000000000000000000000000200000000000000000000000010000000000000000041002000000000000001000000000000000000000000000000020000000000000000000800000000200000080000000000000000000000000000000000000000000000001000000c80000000000000000000000000000000005000000000000000000000000000000001000000000000000000000000000000000000000000000000000000004000000000000000000000040020000000000000000000000000000000000000000000000000000000000000000000",
    "miner": "0x0000000000000000000000000000000000000000",
    "mixHash": "0x0000000000000000000000000000000000000000000000000000000000000000",
    "nonce": "0x0000000000000000",
    "number": "0x76dbb",
    "parentHash": "0x9d261bd84c515903f1ce95b99bfc77a99d10c03ea8df9e3dd5534cb19daaac8e",
    "receiptsRoot": "0xb0872b766266e31831701e45331a57b292e95a4777ba94c4b43e1765c5751031",
    "sha3Uncles": "0x1dcc4de8dec75d7aab85b567b6ccd41ad312451b948a7413f0a142fd40d49347",
    "size": "0x534",
    "stateRoot": "0x75ede7e878901ccb6a90fca5f92c8312c9c63892758c9668132b58d415ea2629",
    "timestamp": "0x61bf2820",
    "totalDifficulty": "0xedb77",
    "transactions": [
      {
        "blockHash": "0xc5265aa60712e609b54556e500d1642700ae4f54d8f5013541a849237888ed0a",
        "blockNumber": "0x76dbb",
        "from": "0x3e87f90eb0defe065fc8c3ec1b006a5e86b12d60",
        "gas": "0x7a120",
        "gasPrice": "0x2710",
        "hash": "0x5d679d9194a0072ea716b2099f1bac8e53409d4d15ec8d3e10d0cbfebd1acb76",
        "index": "0x76dba",
        "input": "0xc9807539000000000000000000000000000000000000000000000000000000000000008000000000000000000000000000000000000000000000000000000000000001a000000000000000000000000000000000000000000000000000000000000002000001000000000000000000000000000000000000000000000000000000000000000000000000000000000000000000000000000000000000000000000000010000000000000000000000005b96f5146ec2c9b0208d99d71a9ce01f00000b360100010203000000000000000000000000000000000000000000000000000000000000000000000000000000000000000000000000000000000000000000000060000000000000000000000000000000000000000000000000000000000000000400000000000000000000000000000000000000000000000000000000000000050000000000000000000000000000000000000000000000000000000000000005000000000000000000000000000000000000000000000000000000000000000500000000000000000000000000000000000000000000000000000000000000050000000000000000000000000000000000000000000000000000000000000002766dd7787978b6aca27204b6db5965d9a92349ff4b111456ca525cdbc69ce82815999b51fc3a4740dbfc4c6b838c24316baf5bab18e2605baef68b35fac2a41900000000000000000000000000000000000000000000000000000000000000023aca026ed05e02e6680d5e63335d48e5b6e3c8983c0220db377bcbae7803b60833b0ba056183e5f4f1ceeb3daed4c0cbc0ca19e4509aae9ca098db3e558ab604",
        "l1BlockNumber": "0x1b82923",
        "l1Timestamp": "0x61bf2820",
        "l1TxOrigin": null,
        "nonce": "0x4223",
        "queueIndex": null,
        "queueOrigin": "sequencer",
        "r": "0xf6fab32dceff680a498a8da17a8552c275e80497c150b2df9080f899fda90990",
        "rawTransaction": "0xf902cb8242238227108307a1209456d40c39d82283c8d9d32e7afad0e2add76ddda680b90264c9807539000000000000000000000000000000000000000000000000000000000000008000000000000000000000000000000000000000000000000000000000000001a000000000000000000000000000000000000000000000000000000000000002000001000000000000000000000000000000000000000000000000000000000000000000000000000000000000000000000000000000000000000000000000010000000000000000000000005b96f5146ec2c9b0208d99d71a9ce01f00000b360100010203000000000000000000000000000000000000000000000000000000000000000000000000000000000000000000000000000000000000000000000060000000000000000000000000000000000000000000000000000000000000000400000000000000000000000000000000000000000000000000000000000000050000000000000000000000000000000000000000000000000000000000000005000000000000000000000000000000000000000000000000000000000000000500000000000000000000000000000000000000000000000000000000000000050000000000000000000000000000000000000000000000000000000000000002766dd7787978b6aca27204b6db5965d9a92349ff4b111456ca525cdbc69ce82815999b51fc3a4740dbfc4c6b838c24316baf5bab18e2605baef68b35fac2a41900000000000000000000000000000000000000000000000000000000000000023aca026ed05e02e6680d5e63335d48e5b6e3c8983c0220db377bcbae7803b60833b0ba056183e5f4f1ceeb3daed4c0cbc0ca19e4509aae9ca098db3e558ab60481ada0f6fab32dceff680a498a8da17a8552c275e80497c150b2df9080f899fda90990a054d33f714e8b5f716b8882fbc217d9d3e9c36f971d9d78c162174e2e40c3973e",
        "s": "0x54d33f714e8b5f716b8882fbc217d9d3e9c36f971d9d78c162174e2e40c3973e",
        "to": "0x56d40c39d82283c8d9d32e7afad0e2add76ddda6",
        "transactionIndex": "0x0",
        "v": "0xad",
        "value": "0x0"
      }
    ],
    "transactionsRoot": "0xea02a4e024b84951ecfbb0d30746d550e42768c051f2f17b33c238a3bc5bdeb3",
    "uncles": []
  },
  "receipts": [
    {
      "blockHash": "0xc5265aa60712e609b54556e500d1642700ae4f54d8f5013541a849237888ed0a",
      "blockNumber": "0x76dbb",
      "contractAddress": null,
      "cumulativeGasUsed": "0x4663e",
      "from": "0x3e87f90eb0defe065fc8c3ec1b006a5e86b12d60",
      "gasUsed": "0x4663e",
      "l1Fee": "0x16d73",
      "l1FeeScalar": "1.5",
      "l1GasPrice": "0x7",
      "l1GasUsed": "0x22ce",
      "logs": [
        {
          "address": "0x56d40c39d82283c8d9d32e7afad0e2add76ddda6",
          "blockHash": "0xc5265aa60712e609b54556e500d1642700ae4f54d8f5013541a849237888ed0a",
          "blockNumber": "0x76dbb",
          "data": "0x00000000000000000000000000000000000000000000000000000000000000050000000000000000000000003e87f90eb0defe065fc8c3ec1b006a5e86b12d6000000000000000000000000000000000000000000000000000000000000000a0000000000000000000000000000000000000000000000000000000000000014000000000000000000000005b96f5146ec2c9b0208d99d71a9ce01f00000b36010000000000000000000000000000000000000000000000000000000000000004000000000000000000000000000000000000000000000000000000000000000500000000000000000000000000000000000000000000000000000000000000050000000000000000000000000000000000000000000000000000000000000005000000000000000000000000000000000000000000000000000000000000000500000000000000000000000000000000000000000000000000000000000000040001020300000000000000000000000000000000000000000000000000000000",
          "logIndex": "0x0",
          "removed": false,
          "topics": [
            "0xf6a97944f31ea060dfde0566e4167c1a1082551e64b60ecb14d599a9d023d451",
            "0x00000000000000000000000000000000000000000000000000000000000041d1"
          ],
          "transactionHash": "0x5d679d9194a0072ea716b2099f1bac8e53409d4d15ec8d3e10d0cbfebd1acb76",
          "transactionIndex": "0x0"
        },
        {
          "address": "0x56d40c39d82283c8d9d32e7afad0e2add76ddda6",
          "blockHash": "0xc5265aa60712e609b54556e500d1642700ae4f54d8f5013541a849237888ed0a",
          "blockNumber": "0x76dbb",
          "data": "0x0000000000000000000000000000000000000000000000000000000061bf2820",
          "logIndex": "0x1",
          "removed": false,
          "topics": [
            "0x0109fc6f55cf40689f02fbaad7af7fe7bbac8a3d2186600afc7d3e10cac60271",
            "0x00000000000000000000000000000000000000000000000000000000000041d1",
            "0x0000000000000000000000000000000000000000000000000000000000000000"
          ],
          "transactionHash": "0x5d679d9194a0072ea716b2099f1bac8e53409d4d15ec8d3e10d0cbfebd1acb76",
          "transactionIndex": "0x0"
        },
        {
          "address": "0x56d40c39d82283c8d9d32e7afad0e2add76ddda6",
          "blockHash": "0xc5265aa60712e609b54556e500d1642700ae4f54d8f5013541a849237888ed0a",
          "blockNumber": "0x76dbb",
          "data": "0x0000000000000000000000000000000000000000000000000000000061bf2820",
          "logIndex": "0x2",
          "removed": false,
          "topics": [
            "0x0559884fd3a460db3073b7fc896cc77986f16e378210ded43186175bf646fc5f",
            "0x0000000000000000000000000000000000000000000000000000000000000005",
            "0x00000000000000000000000000000000000000000000000000000000000041d1"
          ],
          "transactionHash": "0x5d679d9194a0072ea716b2099f1bac8e53409d4d15ec8d3e10d0cbfebd1acb76",
          "transactionIndex": "0x0"
        }
      ],
      "logsBloom": "0x00000000000000000000000000000000000000000000000000000000000000000000100000000000000000000000000000000000000200000000000000000000000010000000000000000041002000000000000001000000000000000000000000000000020000000000000000000800000000200000080000000000000000000000000000000000000000000000001000000c80000000000000000000000000000000005000000000000000000000000000000001000000000000000000000000000000000000000000000000000000004000000000000000000000040020000000000000000000000000000000000000000000000000000000000000000000",
      "status": "0x1",
      "to": "0x56d40c39d82283c8d9d32e7afad0e2add76ddda6",
      "transactionHash": "0x5d679d9194a0072ea716b2099f1bac8e53409d4d15ec8d3e10d0cbfebd1acb76",
      "transactionIndex": "0x0"
    }
  ]
}
