{
  "transactionIndex": 1,
  "block": {
    "author": "0x88848d6a768adfae32c9aef05d70c522893efa1c",
    "baseFeePerGas": "0x174876e800",
    "difficulty": "0x0",
    "extraData": "0x",
    "gasLimit": "0xe4e1c0",
    "gasUsed": "0x97936",
    "hash": "0xe6547228f39952af0ec6930d8da565c9772c107398d7084e25acc9cc9bc982ee",
    "logsBloom": "0x0000000000001000000020201000000000000000040000000000100000000000000810100000000400000000000000000a040000000a00000000000010204040000000000000000000000009402000020000000021000008000000008000000000000000020000008100000800900800000000000000000000000010000200000000000000000000000004000000140800000481000004200000000010000104020000001808000000000080000000000000000000000040000000000400000000040402000000000400000000000000024000000080000000004000000020000210001000001000800000000080000000000000400000400000000200004000",
    "miner": "0x88848d6a768adfae32c9aef05d70c522893efa1c",
    "nonce": "0x0000000000000000",
    "number": "0x1845c0",
    "parentHash": "0xe34f4077a5eb0fdb98b2d9dc5c9f5a4e0a155c2906c45606195c90c50d59f6e2",
    "receiptsRoot": "0xbf302b8e940f30fc7d0a0a68dcc8548b1a1cfbfa10a44e13823c2d6120be1b66",
    "sha3Uncles": "0x1dcc4de8dec75d7aab85b567b6ccd41ad312451b948a7413f0a142fd40d49347",
    "size": "0x92c",
    "stateRoot": "0x3c63dcd5d42c9f01131669d737ea44cdaa3759b69caadfdafee613b5c07391c7",
    "timestamp": "0x62ed90b8",
    "totalDifficulty": "0x0",
    "transactions": [
      {
        "accessList": null,
        "blockHash": "0xe6547228f39952af0ec6930d8da565c9772c107398d7084e25acc9cc9bc982ee",
        "blockNumber": "0x1845c0",
        "chainId": "0x504",
        "creates": null,
        "from": "0x3afba8bcf84082adbeaea4da9de0ce27d4d2cc71",
        "gas": "0x7a120",
        "gasPrice": "0x17a1df1700",
        "hash": "0x9c681f3fc9305d6579cb773b21bff045afda7ff5496c87683900c442eb026ff5",
        "input": "0xc9807539000000000000000000000000000000000000000000000000000000000000008000000000000000000000000000000000000000000000000000000000000003200000000000000000000000000000000000000000000000000000000000000400000101010101000000000000000000000000000000000000000000000000000000000000000000000000000000000000000000000000000000000000000002800000000000000000000000e12f733b94c1135c366bc0191a115e98000041fc060c01070502030a060e0b08040f090d000000000000000000000000000000000000000000000000000000000000000000000000000000000000000000000000600000000000000000000000000000000000000000000000000000000000000010000000000000000000000000000000000000000000000000000000002e3beea9000000000000000000000000000000000000000000000000000000002e3beea9000000000000000000000000000000000000000000000000000000002e3beea9000000000000000000000000000000000000000000000000000000002e3d021c000000000000000000000000000000000000000000000000000000002e3d0e75000000000000000000000000000000000000000000000000000000002e3d0e75000000000000000000000000000000000000000000000000000000002e3d0e75000000000000000000000000000000000000000000000000000000002e3d0e75000000000000000000000000000000000000000000000000000000002e3d0e75000000000000000000000000000000000000000000000000000000002e3d0e75000000000000000000000000000000000000000000000000000000002e3dc4c0000000000000000000000000000000000000000000000000000000002e3dc4c0000000000000000000000000000000000000000000000000000000002e3f0412000000000000000000000000000000000000000000000000000000002e3f0412000000000000000000000000000000000000000000000000000000002e450829000000000000000000000000000000000000000000000000000000002e46ec800000000000000000000000000000000000000000000000000000000000000006fe66119b5765a4ba67bc885514d382c4d6b1bf4a1bd89ee2379a5e44ff1cf1dee505f187df22c5b3e19ef5c75277faf8d3d30cffcb5e157a1bd8ad7d4f54446e4192a5e6380c7f9b8cee1aef9ec4aeca9ea9da3ccf0a8f163378ea72af103725eaaefa9628645411446e23bce0b7ee1c6113068d6c37d1f1963e0b5b354306d84db0b8e3fd2370ab7b784021d36d6fb74feb0cb597a02b34263e0f4e99115d97fc0830b66b08afe1e1e2e85870ae97472fbc33a76bd507e12457ef1618471c1c00000000000000000000000000000000000000000000000000000000000000067cfa6c90fac350f6032c6c8b495b047d469b7047e57ea134fa97d7af748aec6b599532d8c0008ce3a44213ad2fa92f5c08500b071a73a3bb54bbd7ca4163f0b51ecab7cee28c42a24d7df68a3d2d17b4f927e0f25b561a71aee58abcad22b5552826359af02737717a3f3828cc2aadb0e19be1409d3f45f38bd5de452c3e489c0989c4a71e95dd1f5269b2c2c94af93131d5f81553563c47bc4dd872ba02bc590a6c6ed98d8641124239f4b75c468aea24031fec9b4f9449e7b9481daa3ff67d",
        "nonce": "0x126b",
        "publicKey": "0x2bcad98c5a8134af29d6212c4ac7324fd901ecf2d0e0d8a061c410f9cf149e5ae91bf9071bcbc7fe25f6c60920c763e936530a41e0a0364d089203dd12710703",
        "r": "0x74624ff4f1e74a34151316479909f0ed93d48c5f6fdd506255f77dd8ee67375",
        "raw": "0xf9054f82126b8517a1df17008307a120949a40cb08a030e6fa281fdf9f3091a4e2839e4aca80b904e4c9807539000000000000000000000000000000000000000000000000000000000000008000000000000000000000000000000000000000000000000000000000000003200000000000000000000000000000000000000000000000000000000000000400000101010101000000000000000000000000000000000000000000000000000000000000000000000000000000000000000000000000000000000000000002800000000000000000000000e12f733b94c1135c366bc0191a115e98000041fc060c01070502030a060e0b08040f090d000000000000000000000000000000000000000000000000000000000000000000000000000000000000000000000000600000000000000000000000000000000000000000000000000000000000000010000000000000000000000000000000000000000000000000000000002e3beea9000000000000000000000000000000000000000000000000000000002e3beea9000000000000000000000000000000000000000000000000000000002e3beea9000000000000000000000000000000000000000000000000000000002e3d021c000000000000000000000000000000000000000000000000000000002e3d0e75000000000000000000000000000000000000000000000000000000002e3d0e75000000000000000000000000000000000000000000000000000000002e3d0e75000000000000000000000000000000000000000000000000000000002e3d0e75000000000000000000000000000000000000000000000000000000002e3d0e75000000000000000000000000000000000000000000000000000000002e3d0e75000000000000000000000000000000000000000000000000000000002e3dc4c0000000000000000000000000000000000000000000000000000000002e3dc4c0000000000000000000000000000000000000000000000000000000002e3f0412000000000000000000000000000000000000000000000000000000002e3f0412000000000000000000000000000000000000000000000000000000002e450829000000000000000000000000000000000000000000000000000000002e46ec800000000000000000000000000000000000000000000000000000000000000006fe66119b5765a4ba67bc885514d382c4d6b1bf4a1bd89ee2379a5e44ff1cf1dee505f187df22c5b3e19ef5c75277faf8d3d30cffcb5e157a1bd8ad7d4f54446e4192a5e6380c7f9b8cee1aef9ec4aeca9ea9da3ccf0a8f163378ea72af103725eaaefa9628645411446e23bce0b7ee1c6113068d6c37d1f1963e0b5b354306d84db0b8e3fd2370ab7b784021d36d6fb74feb0cb597a02b34263e0f4e99115d97fc0830b66b08afe1e1e2e85870ae97472fbc33a76bd507e12457ef1618471c1c00000000000000000000000000000000000000000000000000000000000000067cfa6c90fac350f6032c6c8b495b047d469b7047e57ea134fa97d7af748aec6b599532d8c0008ce3a44213ad2fa92f5c08500b071a73a3bb54bbd7ca4163f0b51ecab7cee28c42a24d7df68a3d2d17b4f927e0f25b561a71aee58abcad22b5552826359af02737717a3f3828cc2aadb0e19be1409d3f45f38bd5de452c3e489c0989c4a71e95dd1f5269b2c2c94af93131d5f81553563c47bc4dd872ba02bc590a6c6ed98d8641124239f4b75c468aea24031fec9b4f9449e7b9481daa3ff67d820a2ba0074624ff4f1e74a34151316479909f0ed93d48c5f6fdd506255f77dd8ee67375a0522262eac2d810e83a7f31ece99d6c3cfb4c34a315b75dfd8a421be0d76e46a8",
        "s": "0x522262eac2d810e83a7f31ece99d6c3cfb4c34a315b75dfd8a421be0d76e46a8",
        "standardV": "0x0",
        "to": "0x9a40cb08a030e6fa281fdf9f3091a4e2839e4aca",
        "transactionIndex": "0x0",
        "type": "0x0",
        "v": "0xa2b",
        "value": "0x0"
      },
      {
        "accessList": [],
        "blockHash": "0xe6547228f39952af0ec6930d8da565c9772c107398d7084e25acc9cc9bc982ee",
        "blockNumber": "0x1845c0",
        "chainId": "0x504",
        "creates": null,
        "from": "0xa3728cf788487a253da0b79c3680ee85895c04f3",
        "gas": "0x4c85e",
        "gasPrice": "0x17a1df1700",
        "hash": "0xbe9468fc53b640ba6ec276fc621a0acf83a9eece044a578a411bcf0a83ef51e4",
        "input": "0x515bc323000000000000000000000000000000000000000000000000000000000000001200000000000000000000000000000000000000000000000000030fae723ff99f0000000000000000000000000000000000000000000000000000000062ed9c40000000000000000000000000000000000000000000000000000000000000001c90bcab411493bcc0d1923272b72476252e6066929d093fe3c296867a055be86a41613012162c8d052543f1e668c7c6c2f4da9d5d0000a8e2de68d02a2c31c8dd",
        "maxFeePerGas": "0x1c49f6df00",
        "maxPriorityFeePerGas": "0x59682f00",
        "nonce": "0x136",
        "publicKey": "0x7c75ad8d606bfbebea60d1f2cfa35f5dc5d3d6418427978608ac567ee81857b2a6261b8366b328d0a96e4128b6c0991d75d0470c4a155fc39e861bab0679a252",
        "r": "0x402fee7730b1049318c9d20e4172dc829bd6cb74ecc08e5afd6a04ab9b4a54f7",
        "raw": "0xb9013902f901358205048201368459682f00851c49f6df008304c85e94c6ca172fc8bdb803c5e12731109744fb0200587b80b8c4515bc323000000000000000000000000000000000000000000000000000000000000001200000000000000000000000000000000000000000000000000030fae723ff99f0000000000000000000000000000000000000000000000000000000062ed9c40000000000000000000000000000000000000000000000000000000000000001c90bcab411493bcc0d1923272b72476252e6066929d093fe3c296867a055be86a41613012162c8d052543f1e668c7c6c2f4da9d5d0000a8e2de68d02a2c31c8ddc001a0402fee7730b1049318c9d20e4172dc829bd6cb74ecc08e5afd6a04ab9b4a54f7a03b49494034adfdca91bfa8396a0f97d2c31c93a41d1821ea191da35a4b8227ad",
        "s": "0x3b49494034adfdca91bfa8396a0f97d2c31c93a41d1821ea191da35a4b8227ad",
        "standardV": "0x1",
        "to": "0xc6ca172fc8bdb803c5e12731109744fb0200587b",
        "transactionIndex": "0x1",
        "type": "0x2",
        "v": "0x1",
        "value": "0x0"
      },
      {
        "accessList": [],
        "blockHash": "0xe6547228f39952af0ec6930d8da565c9772c107398d7084e25acc9cc9bc982ee",
        "blockNumber": "0x1845c0",
        "chainId": "0x504",
        "creates": null,
        "from": "0x4c4562d95fac224b91d3a042e210fc77319752c1",
        "gas": "0x4ac31",
        "gasPrice": "0x174876e800",
        "hash": "0x1c842a8f1c6d8ab336bbe2ba045f2e18435e300220d99e53653557133b49e350",
        "input": "0xb6b55f2500000000000000000000000000000000000000000000000000470a77b7fa5148",
        "maxFeePerGas": "0x174876e800",
        "maxPriorityFeePerGas": "0x174876e800",
        "nonce": "0x5",
        "publicKey": "0xb7c7754d78f66e3c96a9164caf5b5bb3ae017ba3df1c138ac5bb6e694a08f54098971a2b2720cf7b7d5ba2ecea806f7e42a38e147ae9d03e2aa68be692e7462e",
        "r": "0xa80b2ccd3ddd586166c6b9f59d8f4e1062a1c7399c6f2ca522f6fe726a1c377a",
        "raw": "0xb89602f8938205040585174876e80085174876e8008304ac3194e74d531b0c7db81e84643d106522c783d61c967580a4b6b55f2500000000000000000000000000000000000000000000000000470a77b7fa5148c080a0a80b2ccd3ddd586166c6b9f59d8f4e1062a1c7399c6f2ca522f6fe726a1c377aa0417a2011042d5a6a0e80bd1652a4a8d34834379a6e4dec60d5da13e04a5b9ee9",
        "s": "0x417a2011042d5a6a0e80bd1652a4a8d34834379a6e4dec60d5da13e04a5b9ee9",
        "standardV": "0x0",
        "to": "0xe74d531b0c7db81e84643d106522c783d61c9675",
        "transactionIndex": "0x2",
        "type": "0x2",
        "v": "0x0",
        "value": "0x0"
      }
    ],
    "transactionsRoot": "0xd2bffa92ba1357d60e67240f6428821cb67924282ebc0cfc8a299baf1dfaf19a",
    "uncles": []
  },
  "receipts": [
    {
      "transactionHash": "0x9c681f3fc9305d6579cb773b21bff045afda7ff5496c87683900c442eb026ff5",
      "transactionIndex": "0x0",
      "blockHash": "0xe6547228f39952af0ec6930d8da565c9772c107398d7084e25acc9cc9bc982ee",
      "from": "0x3afba8bcf84082adbeaea4da9de0ce27d4d2cc71",
      "to": "0x9a40cb08a030e6fa281fdf9f3091a4e2839e4aca",
      "blockNumber": "0x1845c0",
      "cumulativeGasUsed": "0x290bb",
      "gasUsed": "0x290bb",
      "contractAddress": null,
      "logs": [
        {
          "address": "0x9a40cb08a030e6fa281fdf9f3091a4e2839e4aca",
          "topics": [
            "0xf6a97944f31ea060dfde0566e4167c1a1082551e64b60ecb14d599a9d023d451",
            "0x0000000000000000000000000000000000000000000000000000000000002f22"
          ],
          "data": "0x000000000000000000000000000000000000000000000000000000002e3d0e750000000000000000000000003afba8bcf84082adbeaea4da9de0ce27d4d2cc7100000000000000000000000000000000000000000000000000000000000000a000000000000000000000000000000000000000000000000000000000000002c00000000000000000000000e12f733b94c1135c366bc0191a115e98000041fc060000000000000000000000000000000000000000000000000000000000000010000000000000000000000000000000000000000000000000000000002e3beea9000000000000000000000000000000000000000000000000000000002e3beea9000000000000000000000000000000000000000000000000000000002e3beea9000000000000000000000000000000000000000000000000000000002e3d021c000000000000000000000000000000000000000000000000000000002e3d0e75000000000000000000000000000000000000000000000000000000002e3d0e75000000000000000000000000000000000000000000000000000000002e3d0e75000000000000000000000000000000000000000000000000000000002e3d0e75000000000000000000000000000000000000000000000000000000002e3d0e75000000000000000000000000000000000000000000000000000000002e3d0e75000000000000000000000000000000000000000000000000000000002e3dc4c0000000000000000000000000000000000000000000000000000000002e3dc4c0000000000000000000000000000000000000000000000000000000002e3f0412000000000000000000000000000000000000000000000000000000002e3f0412000000000000000000000000000000000000000000000000000000002e450829000000000000000000000000000000000000000000000000000000002e46ec8000000000000000000000000000000000000000000000000000000000000000100c01070502030a060e0b08040f090d0000000000000000000000000000000000",
          "blockHash": "0xe6547228f39952af0ec6930d8da565c9772c107398d7084e25acc9cc9bc982ee",
          "blockNumber": "0x1845c0",
          "transactionHash": "0x9c681f3fc9305d6579cb773b21bff045afda7ff5496c87683900c442eb026ff5",
          "transactionIndex": "0x0",
          "logIndex": "0x0",
          "transactionLogIndex": "0x0",
          "removed": false
        },
        {
          "address": "0x9a40cb08a030e6fa281fdf9f3091a4e2839e4aca",
          "topics": [
            "0x0109fc6f55cf40689f02fbaad7af7fe7bbac8a3d2186600afc7d3e10cac60271",
            "0x0000000000000000000000000000000000000000000000000000000000002f22",
            "0x0000000000000000000000000000000000000000000000000000000000000000"
          ],
          "data": "0x0000000000000000000000000000000000000000000000000000000062ed90b8",
          "blockHash": "0xe6547228f39952af0ec6930d8da565c9772c107398d7084e25acc9cc9bc982ee",
          "blockNumber": "0x1845c0",
          "transactionHash": "0x9c681f3fc9305d6579cb773b21bff045afda7ff5496c87683900c442eb026ff5",
          "transactionIndex": "0x0",
          "logIndex": "0x1",
          "transactionLogIndex": "0x1",
          "removed": false
        },
        {
          "address": "0x9a40cb08a030e6fa281fdf9f3091a4e2839e4aca",
          "topics": [
            "0x0559884fd3a460db3073b7fc896cc77986f16e378210ded43186175bf646fc5f",
            "0x000000000000000000000000000000000000000000000000000000002e3d0e75",
            "0x0000000000000000000000000000000000000000000000000000000000002f22"
          ],
          "data": "0x0000000000000000000000000000000000000000000000000000000062ed90b8",
          "blockHash": "0xe6547228f39952af0ec6930d8da565c9772c107398d7084e25acc9cc9bc982ee",
          "blockNumber": "0x1845c0",
          "transactionHash": "0x9c681f3fc9305d6579cb773b21bff045afda7ff5496c87683900c442eb026ff5",
          "transactionIndex": "0x0",
          "logIndex": "0x2",
          "transactionLogIndex": "0x2",
          "removed": false
        }
      ],
      "logsBloom": "0x00000000000000000000000000000000000000000000000000001000000000000008100000000000000000000000000000040000000200000000000000000000000000000000000000000001002000000000000001000000000000000000000000000000020000000000000000900800000000000000000000000000000000000000000000000000000000000000000000000480000004000000000010000000000000001800000000000000000000000000000000000000000000000000000000000000000000000000000000000000004000000000000000000000000020000000000000000000000000000000000000000000000000000000000000004000",
      "status": "0x1",
      "effectiveGasPrice": "0x17a1df1700",
      "type": "0x0"
    },
    {
      "transactionHash": "0xbe9468fc53b640ba6ec276fc621a0acf83a9eece044a578a411bcf0a83ef51e4",
      "transactionIndex": "0x1",
      "blockHash": "0xe6547228f39952af0ec6930d8da565c9772c107398d7084e25acc9cc9bc982ee",
      "from": "0xa3728cf788487a253da0b79c3680ee85895c04f3",
      "to": "0xc6ca172fc8bdb803c5e12731109744fb0200587b",
      "blockNumber": "0x1845c0",
      "cumulativeGasUsed": "0x6ae2d",
      "gasUsed": "0x41d72",
      "contractAddress": null,
      "logs": [
        {
          "address": "0x91ed237532e2fffa3f114e9a1b9af3e65a8495ec",
          "topics": [
            "0x8c5be1e5ebec7d5bd14f71427d1e84f3dd0314c0f7b2291e5b200ac8c7c3b925",
            "0x000000000000000000000000a3728cf788487a253da0b79c3680ee85895c04f3",
            "0x000000000000000000000000c6ca172fc8bdb803c5e12731109744fb0200587b"
          ],
          "data": "0x00000000000000000000000000000000000000000000000000030fae723ff99f",
          "blockHash": "0xe6547228f39952af0ec6930d8da565c9772c107398d7084e25acc9cc9bc982ee",
          "blockNumber": "0x1845c0",
          "transactionHash": "0xbe9468fc53b640ba6ec276fc621a0acf83a9eece044a578a411bcf0a83ef51e4",
          "transactionIndex": "0x1",
          "logIndex": "0x3",
          "transactionLogIndex": "0x0",
          "removed": false
        },
        {
          "address": "0xcd3b51d98478d53f4515a306be565c6eebef1d58",
          "topics": [
            "0xddf252ad1be2c89b69c2b068fc378daa952ba7f163c4a11628f55a4df523b3ef",
            "0x0000000000000000000000000000000000000000000000000000000000000000",
            "0x000000000000000000000000000000000000000000000000000000000000dead"
          ],
          "data": "0x0000000000000000000000000000000000000000000000000000000000000000",
          "blockHash": "0xe6547228f39952af0ec6930d8da565c9772c107398d7084e25acc9cc9bc982ee",
          "blockNumber": "0x1845c0",
          "transactionHash": "0xbe9468fc53b640ba6ec276fc621a0acf83a9eece044a578a411bcf0a83ef51e4",
          "transactionIndex": "0x1",
          "logIndex": "0x4",
          "transactionLogIndex": "0x1",
          "removed": false
        },
        {
          "address": "0xcd3b51d98478d53f4515a306be565c6eebef1d58",
          "topics": [
            "0xddf252ad1be2c89b69c2b068fc378daa952ba7f163c4a11628f55a4df523b3ef",
            "0x0000000000000000000000000000000000000000000000000000000000000000",
            "0x000000000000000000000000c6ca172fc8bdb803c5e12731109744fb0200587b"
          ],
          "data": "0x0000000000000000000000000000000000000000000000296ccc5cb3a097a000",
          "blockHash": "0xe6547228f39952af0ec6930d8da565c9772c107398d7084e25acc9cc9bc982ee",
          "blockNumber": "0x1845c0",
          "transactionHash": "0xbe9468fc53b640ba6ec276fc621a0acf83a9eece044a578a411bcf0a83ef51e4",
          "transactionIndex": "0x1",
          "logIndex": "0x5",
          "transactionLogIndex": "0x2",
          "removed": false
        },
        {
          "address": "0xc6ca172fc8bdb803c5e12731109744fb0200587b",
          "topics": [
            "0x3be3541fc42237d611b30329040bfa4569541d156560acdbbae57640d20b8f46",
            "0x0000000000000000000000000000000000000000000000000000000000000012"
          ],
          "data": "0x0000000000000000000000000000000000000000000000000000000062ed90b800000000000000000000000000000000000000000000000002063da6ac17c5b20000000000000000000000000000000000000000000000001016d65c7d3a8d4d",
          "blockHash": "0xe6547228f39952af0ec6930d8da565c9772c107398d7084e25acc9cc9bc982ee",
          "blockNumber": "0x1845c0",
          "transactionHash": "0xbe9468fc53b640ba6ec276fc621a0acf83a9eece044a578a411bcf0a83ef51e4",
          "transactionIndex": "0x1",
          "logIndex": "0x6",
          "transactionLogIndex": "0x3",
          "removed": false
        },
        {
          "address": "0x91ed237532e2fffa3f114e9a1b9af3e65a8495ec",
          "topics": [
            "0xddf252ad1be2c89b69c2b068fc378daa952ba7f163c4a11628f55a4df523b3ef",
            "0x000000000000000000000000a3728cf788487a253da0b79c3680ee85895c04f3",
            "0x000000000000000000000000c6ca172fc8bdb803c5e12731109744fb0200587b"
          ],
          "data": "0x00000000000000000000000000000000000000000000000000030fae723ff99f",
          "blockHash": "0xe6547228f39952af0ec6930d8da565c9772c107398d7084e25acc9cc9bc982ee",
          "blockNumber": "0x1845c0",
          "transactionHash": "0xbe9468fc53b640ba6ec276fc621a0acf83a9eece044a578a411bcf0a83ef51e4",
          "transactionIndex": "0x1",
          "logIndex": "0x7",
          "transactionLogIndex": "0x4",
          "removed": false
        },
        {
          "address": "0xcb54f9306ab3116d17710af9d235d528ea0ed06a",
          "topics": [
            "0x3be3541fc42237d611b30329040bfa4569541d156560acdbbae57640d20b8f46",
            "0x0000000000000000000000000000000000000000000000000000000000000012"
          ],
          "data": "0x0000000000000000000000000000000000000000000000000000000062ed90b800000000000000000000000000000000000000000000000002063da6ac17c5b200000000000000000000000000000000000000000000000001c6e837c9695fa3",
          "blockHash": "0xe6547228f39952af0ec6930d8da565c9772c107398d7084e25acc9cc9bc982ee",
          "blockNumber": "0x1845c0",
          "transactionHash": "0xbe9468fc53b640ba6ec276fc621a0acf83a9eece044a578a411bcf0a83ef51e4",
          "transactionIndex": "0x1",
          "logIndex": "0x8",
          "transactionLogIndex": "0x5",
          "removed": false
        },
        {
          "address": "0xcb54f9306ab3116d17710af9d235d528ea0ed06a",
          "topics": [
            "0xd1072bb52c3131d0c96197b73fb8a45637e30f8b6664fc142310cc9b242859b4",
            "0x000000000000000000000000a3728cf788487a253da0b79c3680ee85895c04f3"
          ],
          "data": "0x0000000000000000000000000000000000000000000000000000000000000000",
          "blockHash": "0xe6547228f39952af0ec6930d8da565c9772c107398d7084e25acc9cc9bc982ee",
          "blockNumber": "0x1845c0",
          "transactionHash": "0xbe9468fc53b640ba6ec276fc621a0acf83a9eece044a578a411bcf0a83ef51e4",
          "transactionIndex": "0x1",
          "logIndex": "0x9",
          "transactionLogIndex": "0x6",
          "removed": false
        },
        {
          "address": "0xc6ca172fc8bdb803c5e12731109744fb0200587b",
          "topics": [
            "0x90890809c654f11d6e72a28fa60149770a0d11ec6c92319d6ceb2bb0a4ea1a15",
            "0x000000000000000000000000a3728cf788487a253da0b79c3680ee85895c04f3",
            "0x0000000000000000000000000000000000000000000000000000000000000012"
          ],
          "data": "0x00000000000000000000000000000000000000000000000000030fae723ff99f",
          "blockHash": "0xe6547228f39952af0ec6930d8da565c9772c107398d7084e25acc9cc9bc982ee",
          "blockNumber": "0x1845c0",
          "transactionHash": "0xbe9468fc53b640ba6ec276fc621a0acf83a9eece044a578a411bcf0a83ef51e4",
          "transactionIndex": "0x1",
          "logIndex": "0xa",
          "transactionLogIndex": "0x7",
          "removed": false
        }
      ],
      "logsBloom": "0x0000000000001000000000201000000000000000040000000000000000000000000000000000000400000000000000000a000000000800000000000010200000000000000000000000000008400000020000000020000000000000000000000000000000020000008000000800000800000000000000000000000010000200000000000000000000000004000000040800000000000000000000000000000104020000000008000000000000000000000000000000000040000000000400000000040402000000000400000000000000020000000080000000000000000020000010001000001000800000000080000000000000400000000000000000000000",
      "status": "0x1",
      "effectiveGasPrice": "0x17a1df1700",
      "type": "0x2"
    },
    {
      "transactionHash": "0x1c842a8f1c6d8ab336bbe2ba045f2e18435e300220d99e53653557133b49e350",
      "transactionIndex": "0x2",
      "blockHash": "0xe6547228f39952af0ec6930d8da565c9772c107398d7084e25acc9cc9bc982ee",
      "from": "0x4c4562d95fac224b91d3a042e210fc77319752c1",
      "to": "0xe74d531b0c7db81e84643d106522c783d61c9675",
      "blockNumber": "0x1845c0",
      "cumulativeGasUsed": "0x97936",
      "gasUsed": "0x2cb09",
      "contractAddress": null,
      "logs": [
        {
          "address": "0xe74d531b0c7db81e84643d106522c783d61c9675",
          "topics": [
            "0x7ecd84343f76a23d2227290e0288da3251b045541698e575a5515af4f04197a3",
            "0x0000000000000000000000004c4562d95fac224b91d3a042e210fc77319752c1"
          ],
          "data": "0x00000000000000000000000000000000000000000000000000470a77b7fa5148000000000000000000000000000000000000000000003ecc3617817152003789000000000000000000000000000000000000000000000000001c6a96499753b600000000000000000000000000000000000000000000191e7c0966fa20ccd7da",
          "blockHash": "0xe6547228f39952af0ec6930d8da565c9772c107398d7084e25acc9cc9bc982ee",
          "blockNumber": "0x1845c0",
          "transactionHash": "0x1c842a8f1c6d8ab336bbe2ba045f2e18435e300220d99e53653557133b49e350",
          "transactionIndex": "0x2",
          "logIndex": "0xb",
          "transactionLogIndex": "0x0",
          "removed": false
        },
        {
          "address": "0x0ffc46cd9716a96d8d89e1965774a70dcb851e50",
          "topics": [
            "0xddf252ad1be2c89b69c2b068fc378daa952ba7f163c4a11628f55a4df523b3ef",
            "0x0000000000000000000000004c4562d95fac224b91d3a042e210fc77319752c1",
            "0x000000000000000000000000e74d531b0c7db81e84643d106522c783d61c9675"
          ],
          "data": "0x00000000000000000000000000000000000000000000000000470a77b7fa5148",
          "blockHash": "0xe6547228f39952af0ec6930d8da565c9772c107398d7084e25acc9cc9bc982ee",
          "blockNumber": "0x1845c0",
          "transactionHash": "0x1c842a8f1c6d8ab336bbe2ba045f2e18435e300220d99e53653557133b49e350",
          "transactionIndex": "0x2",
          "logIndex": "0xc",
          "transactionLogIndex": "0x1",
          "removed": false
        },
        {
          "address": "0xe74d531b0c7db81e84643d106522c783d61c9675",
          "topics": [
            "0xe1fffcc4923d04b559f4d29a8bfc6cda04eb5b0d3c460751c2402c5c5cc9109c",
            "0x0000000000000000000000004c4562d95fac224b91d3a042e210fc77319752c1"
          ],
          "data": "0x00000000000000000000000000000000000000000000000000470a77b7fa5148",
          "blockHash": "0xe6547228f39952af0ec6930d8da565c9772c107398d7084e25acc9cc9bc982ee",
          "blockNumber": "0x1845c0",
          "transactionHash": "0x1c842a8f1c6d8ab336bbe2ba045f2e18435e300220d99e53653557133b49e350",
          "transactionIndex": "0x2",
          "logIndex": "0xd",
          "transactionLogIndex": "0x2",
          "removed": false
        },
        {
          "address": "0xe74d531b0c7db81e84643d106522c783d61c9675",
          "topics": [
            "0xddf252ad1be2c89b69c2b068fc378daa952ba7f163c4a11628f55a4df523b3ef",
            "0x0000000000000000000000000000000000000000000000000000000000000000",
            "0x0000000000000000000000004c4562d95fac224b91d3a042e210fc77319752c1"
          ],
          "data": "0x00000000000000000000000000000000000000000000000000470a77b7fa5148",
          "blockHash": "0xe6547228f39952af0ec6930d8da565c9772c107398d7084e25acc9cc9bc982ee",
          "blockNumber": "0x1845c0",
          "transactionHash": "0x1c842a8f1c6d8ab336bbe2ba045f2e18435e300220d99e53653557133b49e350",
          "transactionIndex": "0x2",
          "logIndex": "0xe",
          "transactionLogIndex": "0x3",
          "removed": false
        }
      ],
      "logsBloom": "0x00000000000000000000200000000000000000000000000000000000000000000000001000000000000000000000000000000000000000000000000000004040000000000000000000000009000000000000000000000008000000008000000000000000020000000100000000000800000000000000000000000010000000000000000000000000000000000000140000000001000000200000000000000000000000000000000000000080000000000000000000000040000000000000000000000002000000000000000000000000000000000000000000004000000020000200000000000000000000000000000000000000000000400000000200000000",
      "status": "0x1",
      "effectiveGasPrice": "0x174876e800",
      "type": "0x2"
    }
  ]
}
