{
  "transactionIndex": 0,
  "block": {
    "difficulty": "0x2",
    "extraData": "0xd98301090a846765746889676f312e31352e3133856c696e757800000000000001751348329fc6256bbb022620b34b5c0966407132eac207e91d1924d6be4fd232ca8349ed8bf3a971b0110d569a4804dcf81288356ad2230b3eaa5ca244a05700",
    "gasLimit": "0xa7d8c0",
    "gasUsed": "0x553e2",
    "hash": "0x276679aa5d08a53d3a2893c33522ce8e8f16b187d449d0ecf6bd8aae598e6f77",
    "logsBloom": "0x04000004000000001000000000000000000000000010000040000000004000000000000000001000000000000020200000000100000000000000800000100000000000000000020000000800000000001000000000000000000802000000280000000000000000000001000000000000004201000000000000000000000000400000000000401040080000000000000040000000000000000000010000000000000000000040000480004004000000000000100000000000000000000000108000080000000000000000000000000002000000000000020000000000001000000000000000000080000240000000000010040004000000000120000000000020",
    "miner": "0x0000000000000000000000000000000000000000",
    "mixHash": "0x0000000000000000000000000000000000000000000000000000000000000000",
    "nonce": "0x0000000000000000",
    "number": "0x121ba",
    "parentHash": "0x9696e2853ad83a00b5d5573ada31bb80a4102adcb1af3a5a58a4d53422575f0f",
    "receiptsRoot": "0x8edd621866cb3bdd554477ab52edef395c63d826e1d93d3aaa2bca548edc1c9b",
    "sha3Uncles": "0x1dcc4de8dec75d7aab85b567b6ccd41ad312451b948a7413f0a142fd40d49347",
    "size": "0x895",
    "stateRoot": "0x420aaf356771000f1d3f717111290a2f962ddbf4c85ebad1d456887146e720b3",
    "timestamp": "0x62547a21",
    "totalDifficulty": "0x24375",
    "transactions": [
      {
        "blockHash": "0x276679aa5d08a53d3a2893c33522ce8e8f16b187d449d0ecf6bd8aae598e6f77",
        "blockNumber": "0x121ba",
        "from": "0xa3cf9dfd44c1e1277e4ae9608d0941604a43da3b",
        "gas": "0x5551a",
        "gasPrice": "0x3b9aca00",
        "hash": "0xb523a2b280bd82c2e197507e9490f4f133510cb72db7bc47ccc0007b50185bc1",
        "input": "0xeb1e71350000000000000000000000000000000000000000000000000000000000000060000000000000000000000000000000000000000000000000000000000000038000000000000000000000000000000000000000000000000000000000000004a0000000000000000000000000000000000000000000000000000000000000000800000000000000000000000000000000000000000000000000000000000001000000000000000000000000000000000000000000000000000000000000000140000000000000000000000000000000000000000000000000000000000000018000000000000000000000000000000000000000000000000000000000000001c000000000000000000000000000000000000000000000000000000000000002000000000000000000000000000000000000000000000000000000000000000240000000000000000000000000000000000000000000000000000000000000028000000000000000000000000000000000000000000000000000000000000002c000000000000000000000000000000000000000000000000000000000000000074554482f5553440000000000000000000000000000000000000000000000000000000000000000000000000000000000000000000000000000000000000000074254432f555344000000000000000000000000000000000000000000000000000000000000000000000000000000000000000000000000000000000000000008424f42412f5553440000000000000000000000000000000000000000000000000000000000000000000000000000000000000000000000000000000000000008464c582f555344430000000000000000000000000000000000000000000000000000000000000000000000000000000000000000000000000000000000000009465241582f55534443000000000000000000000000000000000000000000000000000000000000000000000000000000000000000000000000000000000000074441492f555344000000000000000000000000000000000000000000000000000000000000000000000000000000000000000000000000000000000000000008555344432f5553440000000000000000000000000000000000000000000000000000000000000000000000000000000000000000000000000000000000000008555344542f5553440000000000000000000000000000000000000000000000000000000000000000000000000000000000000000000000000000000000000008000000000000000000000000000000000000000000000000000000000000000800000000000000000000000000000000000000000000000000000000000000080000000000000000000000000000000000000000000000000000000000000008000000000000000000000000000000000000000000000000000000000000000800000000000000000000000000000000000000000000000000000000000000080000000000000000000000000000000000000000000000000000000000000008000000000000000000000000000000000000000000000000000000000000000800000000000000000000000000000000000000000000000000000000000000080000000000000000000000000000000000000000000000000000000000000008000000000000000000000000000000000000000000000000000000467a316a92000000000000000000000000000000000000000000000000000003ad7794d32800000000000000000000000000000000000000000000000000000000085aa1dc00000000000000000000000000000000000000000000000000000000023969f50000000000000000000000000000000000000000000000000000000005f657a90000000000000000000000000000000000000000000000000000000005f5af560000000000000000000000000000000000000000000000000000000005f5ff230000000000000000000000000000000000000000000000000000000005f625fc",
        "nonce": "0x5e6",
        "to": "0xfa1c4c03e82daa7788a4adca171350bb67a7bfdb",
        "transactionIndex": "0x0",
        "value": "0x0",
        "v": "0x5b",
        "r": "0x67043ad3498ca7bf7a59d8873a1deb6941e0e39a08981193ed33f5f5d0b501d1",
        "s": "0x296302b393e19964bff3c50827883f8e685efba75538529da0cd1b38fe2c1415",
        "queueOrigin": "sequencer",
        "l1TxOrigin": null,
        "l1BlockNumber": "0xa005f7",
        "l1Timestamp": "0x62547a21",
        "l1Turing": "0x",
        "index": "0x121b9",
        "queueIndex": null,
        "rawTransaction": "0xf9062c8205e6843b9aca008305551a94fa1c4c03e82daa7788a4adca171350bb67a7bfdb80b905c4eb1e71350000000000000000000000000000000000000000000000000000000000000060000000000000000000000000000000000000000000000000000000000000038000000000000000000000000000000000000000000000000000000000000004a0000000000000000000000000000000000000000000000000000000000000000800000000000000000000000000000000000000000000000000000000000001000000000000000000000000000000000000000000000000000000000000000140000000000000000000000000000000000000000000000000000000000000018000000000000000000000000000000000000000000000000000000000000001c000000000000000000000000000000000000000000000000000000000000002000000000000000000000000000000000000000000000000000000000000000240000000000000000000000000000000000000000000000000000000000000028000000000000000000000000000000000000000000000000000000000000002c000000000000000000000000000000000000000000000000000000000000000074554482f5553440000000000000000000000000000000000000000000000000000000000000000000000000000000000000000000000000000000000000000074254432f555344000000000000000000000000000000000000000000000000000000000000000000000000000000000000000000000000000000000000000008424f42412f5553440000000000000000000000000000000000000000000000000000000000000000000000000000000000000000000000000000000000000008464c582f555344430000000000000000000000000000000000000000000000000000000000000000000000000000000000000000000000000000000000000009465241582f55534443000000000000000000000000000000000000000000000000000000000000000000000000000000000000000000000000000000000000074441492f555344000000000000000000000000000000000000000000000000000000000000000000000000000000000000000000000000000000000000000008555344432f5553440000000000000000000000000000000000000000000000000000000000000000000000000000000000000000000000000000000000000008555344542f5553440000000000000000000000000000000000000000000000000000000000000000000000000000000000000000000000000000000000000008000000000000000000000000000000000000000000000000000000000000000800000000000000000000000000000000000000000000000000000000000000080000000000000000000000000000000000000000000000000000000000000008000000000000000000000000000000000000000000000000000000000000000800000000000000000000000000000000000000000000000000000000000000080000000000000000000000000000000000000000000000000000000000000008000000000000000000000000000000000000000000000000000000000000000800000000000000000000000000000000000000000000000000000000000000080000000000000000000000000000000000000000000000000000000000000008000000000000000000000000000000000000000000000000000000467a316a92000000000000000000000000000000000000000000000000000003ad7794d32800000000000000000000000000000000000000000000000000000000085aa1dc00000000000000000000000000000000000000000000000000000000023969f50000000000000000000000000000000000000000000000000000000005f657a90000000000000000000000000000000000000000000000000000000005f5af560000000000000000000000000000000000000000000000000000000005f5ff230000000000000000000000000000000000000000000000000000000005f625fc5ba067043ad3498ca7bf7a59d8873a1deb6941e0e39a08981193ed33f5f5d0b501d1a0296302b393e19964bff3c50827883f8e685efba75538529da0cd1b38fe2c1415"
      }
    ],
    "transactionsRoot": "0xef0d46f6aac7cc3bbf5d3463096e5006724c2db21c156309b5498751764a1202",
    "uncles": []
  },
  "receipts": [
    {
      "blockHash": "0x276679aa5d08a53d3a2893c33522ce8e8f16b187d449d0ecf6bd8aae598e6f77",
      "blockNumber": "0x121ba",
      "contractAddress": null,
      "cumulativeGasUsed": "0x553e2",
      "from": "0xa3cf9dfd44c1e1277e4ae9608d0941604a43da3b",
      "gasUsed": "0x553e2",
      "l1Fee": "0x148655f3f99",
      "l1FeeScalar": "0.15",
      "l1GasPrice": "0x3b9aca0a",
      "l1GasUsed": "0x24bb",
      "l2BobaFee": "0x0",
      "logs": [
        {
          "address": "0x2124f926b900d84eb195c8bea1482963639dccba",
          "topics": [
            "0x17eabd0a66fa631f7537cefdd5df6aa25d5ac904cf7596e958d43a75a00d0d68",
            "0x00000000000000000000000000000000000000000000000000000000000005c3"
          ],
          "data": "0x000000000000000000000000000000000000000000000000000000467a316a92000000000000000000000000fa1c4c03e82daa7788a4adca171350bb67a7bfdb",
          "blockNumber": "0x121ba",
          "transactionHash": "0xb523a2b280bd82c2e197507e9490f4f133510cb72db7bc47ccc0007b50185bc1",
          "transactionIndex": "0x0",
          "blockHash": "0x276679aa5d08a53d3a2893c33522ce8e8f16b187d449d0ecf6bd8aae598e6f77",
          "logIndex": "0x0",
          "removed": false
        },
        {
          "address": "0x435903e93f3b740c9fec51800ef69072ac9806d4",
          "topics": [
            "0x17eabd0a66fa631f7537cefdd5df6aa25d5ac904cf7596e958d43a75a00d0d68",
            "0x00000000000000000000000000000000000000000000000000000000000005af"
          ],
          "data": "0x000000000000000000000000000000000000000000000000000003ad7794d328000000000000000000000000fa1c4c03e82daa7788a4adca171350bb67a7bfdb",
          "blockNumber": "0x121ba",
          "transactionHash": "0xb523a2b280bd82c2e197507e9490f4f133510cb72db7bc47ccc0007b50185bc1",
          "transactionIndex": "0x0",
          "blockHash": "0x276679aa5d08a53d3a2893c33522ce8e8f16b187d449d0ecf6bd8aae598e6f77",
          "logIndex": "0x1",
          "removed": false
        },
        {
          "address": "0x07f5c8d67293d282210a2f9ee36b6f7af28b6139",
          "topics": [
            "0x17eabd0a66fa631f7537cefdd5df6aa25d5ac904cf7596e958d43a75a00d0d68",
            "0x00000000000000000000000000000000000000000000000000000000000005d8"
          ],
          "data": "0x00000000000000000000000000000000000000000000000000000000085aa1dc000000000000000000000000fa1c4c03e82daa7788a4adca171350bb67a7bfdb",
          "blockNumber": "0x121ba",
          "transactionHash": "0xb523a2b280bd82c2e197507e9490f4f133510cb72db7bc47ccc0007b50185bc1",
          "transactionIndex": "0x0",
          "blockHash": "0x276679aa5d08a53d3a2893c33522ce8e8f16b187d449d0ecf6bd8aae598e6f77",
          "logIndex": "0x2",
          "removed": false
        },
        {
          "address": "0x3708841387e4550a7f3402a91262b8735fe48f31",
          "topics": [
            "0x17eabd0a66fa631f7537cefdd5df6aa25d5ac904cf7596e958d43a75a00d0d68",
            "0x00000000000000000000000000000000000000000000000000000000000005c1"
          ],
          "data": "0x00000000000000000000000000000000000000000000000000000000023969f5000000000000000000000000fa1c4c03e82daa7788a4adca171350bb67a7bfdb",
          "blockNumber": "0x121ba",
          "transactionHash": "0xb523a2b280bd82c2e197507e9490f4f133510cb72db7bc47ccc0007b50185bc1",
          "transactionIndex": "0x0",
          "blockHash": "0x276679aa5d08a53d3a2893c33522ce8e8f16b187d449d0ecf6bd8aae598e6f77",
          "logIndex": "0x3",
          "removed": false
        },
        {
          "address": "0x64d178715a1f002795df425a2dba97873aa60ed7",
          "topics": [
            "0x17eabd0a66fa631f7537cefdd5df6aa25d5ac904cf7596e958d43a75a00d0d68",
            "0x00000000000000000000000000000000000000000000000000000000000005cb"
          ],
          "data": "0x0000000000000000000000000000000000000000000000000000000005f657a9000000000000000000000000fa1c4c03e82daa7788a4adca171350bb67a7bfdb",
          "blockNumber": "0x121ba",
          "transactionHash": "0xb523a2b280bd82c2e197507e9490f4f133510cb72db7bc47ccc0007b50185bc1",
          "transactionIndex": "0x0",
          "blockHash": "0x276679aa5d08a53d3a2893c33522ce8e8f16b187d449d0ecf6bd8aae598e6f77",
          "logIndex": "0x4",
          "removed": false
        },
        {
          "address": "0x0b14a5b358fe83a6f375b66ee564fb357cc3bfff",
          "topics": [
            "0x17eabd0a66fa631f7537cefdd5df6aa25d5ac904cf7596e958d43a75a00d0d68",
            "0x00000000000000000000000000000000000000000000000000000000000005b2"
          ],
          "data": "0x0000000000000000000000000000000000000000000000000000000005f5af56000000000000000000000000fa1c4c03e82daa7788a4adca171350bb67a7bfdb",
          "blockNumber": "0x121ba",
          "transactionHash": "0xb523a2b280bd82c2e197507e9490f4f133510cb72db7bc47ccc0007b50185bc1",
          "transactionIndex": "0x0",
          "blockHash": "0x276679aa5d08a53d3a2893c33522ce8e8f16b187d449d0ecf6bd8aae598e6f77",
          "logIndex": "0x5",
          "removed": false
        },
        {
          "address": "0x2bd9c9b6db1528ae79d28280aed6037923beec64",
          "topics": [
            "0x17eabd0a66fa631f7537cefdd5df6aa25d5ac904cf7596e958d43a75a00d0d68",
            "0x00000000000000000000000000000000000000000000000000000000000005c2"
          ],
          "data": "0x0000000000000000000000000000000000000000000000000000000005f5ff23000000000000000000000000fa1c4c03e82daa7788a4adca171350bb67a7bfdb",
          "blockNumber": "0x121ba",
          "transactionHash": "0xb523a2b280bd82c2e197507e9490f4f133510cb72db7bc47ccc0007b50185bc1",
          "transactionIndex": "0x0",
          "blockHash": "0x276679aa5d08a53d3a2893c33522ce8e8f16b187d449d0ecf6bd8aae598e6f77",
          "logIndex": "0x6",
          "removed": false
        },
        {
          "address": "0x020022e3931b5c84fd7db5146d6c00f1c807e207",
          "topics": [
            "0x17eabd0a66fa631f7537cefdd5df6aa25d5ac904cf7596e958d43a75a00d0d68",
            "0x00000000000000000000000000000000000000000000000000000000000005bc"
          ],
          "data": "0x0000000000000000000000000000000000000000000000000000000005f625fc000000000000000000000000fa1c4c03e82daa7788a4adca171350bb67a7bfdb",
          "blockNumber": "0x121ba",
          "transactionHash": "0xb523a2b280bd82c2e197507e9490f4f133510cb72db7bc47ccc0007b50185bc1",
          "transactionIndex": "0x0",
          "blockHash": "0x276679aa5d08a53d3a2893c33522ce8e8f16b187d449d0ecf6bd8aae598e6f77",
          "logIndex": "0x7",
          "removed": false
        }
      ],
      "logsBloom": "0x04000004000000001000000000000000000000000010000040000000004000000000000000001000000000000020200000000100000000000000800000100000000000000000020000000800000000001000000000000000000802000000280000000000000000000001000000000000004201000000000000000000000000400000000000401040080000000000000040000000000000000000010000000000000000000040000480004004000000000000100000000000000000000000108000080000000000000000000000000002000000000000020000000000001000000000000000000080000240000000000010040004000000000120000000000020",
      "status": "0x1",
      "to": "0xfa1c4c03e82daa7788a4adca171350bb67a7bfdb",
      "transactionHash": "0xb523a2b280bd82c2e197507e9490f4f133510cb72db7bc47ccc0007b50185bc1",
      "transactionIndex": "0x0"
    }
  ]
}
