{
  "transactionIndex": 0,
  "block": {
    "difficulty": "0x2",
    "extraData": "0xd98301090a846765746889676f312e31352e3133856c696e7578000000000000883b27595df88b63194509518e41b6e39622043949a9699d843f4ae30fdad78f555b98b4a8eb147d1cd66100b67ed0777e2a9441fc738ed793f3a155e96e74a000",
    "gasLimit": "0xa7d8c0",
    "gasUsed": "0x43bf8",
    "hash": "0xc06910b8402f5e1e2dddcee9b922a6b41c551bfb5cd4fa7d787d8dbf9375125c",
    "logsBloom": "0x00200000000000000000000080000000000000000000000000000000040000002000004000010000000000000000000000000800000000000000000000000040000000000000000000000008000000200000000000000000000000000000000000000000000000000000000020010000000000000000002000000010000000000000000000000000000000000000000000000000000000080020404000100000000000001000000000000000000000000000000000000000000000000000000000000002000000080100040000000000000000000000001000000000000001000008000000000000000050000000001000000000000000000000000000000000",
    "miner": "0x0000000000000000000000000000000000000000",
    "mixHash": "0x0000000000000000000000000000000000000000000000000000000000000000",
    "nonce": "0x0000000000000000",
    "number": "0x45f88",
    "parentHash": "0xc667b09d2113eff6fce635674cfe3ad14dd6ed006332c3706e3c3387914ebda8",
    "receiptsRoot": "0x0826a5659e9a1e1d02530a9c48e8e171f94f3ab1b528177966c7219ca31ea88c",
    "sha3Uncles": "0x1dcc4de8dec75d7aab85b567b6ccd41ad312451b948a7413f0a142fd40d49347",
    "size": "0x374",
    "stateRoot": "0xf121bfa4a0db7709338e1f4250a69386e85dcd1eef2d51e5d292694b3871892d",
    "timestamp": "0x61e04979",
    "totalDifficulty": "0x8bf11",
    "transactions": [
      {
        "blockHash": "0xc06910b8402f5e1e2dddcee9b922a6b41c551bfb5cd4fa7d787d8dbf9375125c",
        "blockNumber": "0x45f88",
        "from": "0xf7a15601ae851d3ed6bd19456b8d063a88bccd76",
        "gas": "0x4cc75",
        "gasPrice": "0x3b9bbe3f",
        "hash": "0x7d4a4b2f11f2fcbd16a61b2b8c42240997d27bb8bea1d7fa08de6697c6e30941",
        "index": "0x45f87",
        "input": "0x627dd56a000000000000000000000000000000000000000000000000000000000000002000000000000000000000000000000000000000000000000000000000000000510500000000000000000cdcde29002b000066a2a913e447d6b4bf33efbec43aaef87890fbbc1e00222f106a886fe36bb106699a65d5c8f38642eb1c1401ad5a219e5d727ce150389d49535257393ec57697000000000000000000000000000000",
        "l1BlockNumber": "0xd597f6",
        "l1Timestamp": "0x61e04979",
        "l1Turing": "0x",
        "l1TxOrigin": null,
        "nonce": "0x54",
        "queueIndex": null,
        "queueOrigin": "sequencer",
        "r": "0x20f84233911a2a3a2fc0cc2fc1dc4a9902a56ef0f145d212b9c4b1687de47791",
        "rawTransaction": "0xf9010b54843b9bbe3f8304cc75949f3423c7177f3e15211f7c9b7521bce06fd324b680b8a4627dd56a000000000000000000000000000000000000000000000000000000000000002000000000000000000000000000000000000000000000000000000000000000510500000000000000000cdcde29002b000066a2a913e447d6b4bf33efbec43aaef87890fbbc1e00222f106a886fe36bb106699a65d5c8f38642eb1c1401ad5a219e5d727ce150389d49535257393ec57697000000000000000000000000000000820264a020f84233911a2a3a2fc0cc2fc1dc4a9902a56ef0f145d212b9c4b1687de47791a009e899b18cb87957ad077498285e1db39dccde848070df9c22eeda040bfdfafc",
        "s": "0x9e899b18cb87957ad077498285e1db39dccde848070df9c22eeda040bfdfafc",
        "to": "0x9f3423c7177f3e15211f7c9b7521bce06fd324b6",
        "transactionIndex": "0x0",
        "v": "0x264",
        "value": "0x0"
      }
    ],
    "transactionsRoot": "0xc075a8873a88ff6aaca192e6cadc8fe7824397fe1e131c0f822f19c6693660e4",
    "uncles": []
  },
  "receipts": [
    {
      "blockHash": "0xc06910b8402f5e1e2dddcee9b922a6b41c551bfb5cd4fa7d787d8dbf9375125c",
      "blockNumber": "0x45f88",
      "contractAddress": null,
      "cumulativeGasUsed": "0x43bf8",
      "from": "0xf7a15601ae851d3ed6bd19456b8d063a88bccd76",
      "gasUsed": "0x43bf8",
      "l1Fee": "0x3e833bbb9bf0c",
      "l1FeeScalar": "0.15",
      "l1GasPrice": "0x3123bd1268",
      "l1GasUsed": "0x87b2",
      "logs": [
        {
          "address": "0x66a2a913e447d6b4bf33efbec43aaef87890fbbc",
          "blockHash": "0xc06910b8402f5e1e2dddcee9b922a6b41c551bfb5cd4fa7d787d8dbf9375125c",
          "blockNumber": "0x45f88",
          "data": "0x000000000000000000000000000000000000000000000000000000000cdcde29",
          "logIndex": "0x0",
          "removed": false,
          "topics": [
            "0xddf252ad1be2c89b69c2b068fc378daa952ba7f163c4a11628f55a4df523b3ef",
            "0x0000000000000000000000009f3423c7177f3e15211f7c9b7521bce06fd324b6",
            "0x000000000000000000000000547b227a77813ea70aacf01212b39db7b560fa1c"
          ],
          "transactionHash": "0x7d4a4b2f11f2fcbd16a61b2b8c42240997d27bb8bea1d7fa08de6697c6e30941",
          "transactionIndex": "0x0"
        },
        {
          "address": "0xdeaddeaddeaddeaddeaddeaddeaddeaddead0000",
          "blockHash": "0xc06910b8402f5e1e2dddcee9b922a6b41c551bfb5cd4fa7d787d8dbf9375125c",
          "blockNumber": "0x45f88",
          "data": "0x00000000000000000000000000000000000000000000000000e7d293b3f331ce",
          "logIndex": "0x1",
          "removed": false,
          "topics": [
            "0xddf252ad1be2c89b69c2b068fc378daa952ba7f163c4a11628f55a4df523b3ef",
            "0x000000000000000000000000547b227a77813ea70aacf01212b39db7b560fa1c",
            "0x000000000000000000000000db0e138ea29ca12deb9204c12434027d0de76797"
          ],
          "transactionHash": "0x7d4a4b2f11f2fcbd16a61b2b8c42240997d27bb8bea1d7fa08de6697c6e30941",
          "transactionIndex": "0x0"
        },
        {
          "address": "0x547b227a77813ea70aacf01212b39db7b560fa1c",
          "blockHash": "0xc06910b8402f5e1e2dddcee9b922a6b41c551bfb5cd4fa7d787d8dbf9375125c",
          "blockNumber": "0x45f88",
          "data": "0x000000000000000000000000000000000000000000000000000003dd885aefc3000000000000000000000000000000000000000000000045dede13a7f4bb7662",
          "logIndex": "0x2",
          "removed": false,
          "topics": [
            "0x1c411e9a96e071241c2f21f7726b17ae89e3cab4c78be50e062b03a9fffbbad1"
          ],
          "transactionHash": "0x7d4a4b2f11f2fcbd16a61b2b8c42240997d27bb8bea1d7fa08de6697c6e30941",
          "transactionIndex": "0x0"
        },
        {
          "address": "0x547b227a77813ea70aacf01212b39db7b560fa1c",
          "blockHash": "0xc06910b8402f5e1e2dddcee9b922a6b41c551bfb5cd4fa7d787d8dbf9375125c",
          "blockNumber": "0x45f88",
          "data": "0x000000000000000000000000000000000000000000000000000000000cdcde290000000000000000000000000000000000000000000000000000000000000000000000000000000000000000000000000000000000000000000000000000000000000000000000000000000000000000000000000000000000e7d293b3f331ce",
          "logIndex": "0x3",
          "removed": false,
          "topics": [
            "0xd78ad95fa46c994b6551d0da85fc275fe613ce37657fb8d5e3d130840159d822",
            "0x0000000000000000000000009f3423c7177f3e15211f7c9b7521bce06fd324b6",
            "0x000000000000000000000000db0e138ea29ca12deb9204c12434027d0de76797"
          ],
          "transactionHash": "0x7d4a4b2f11f2fcbd16a61b2b8c42240997d27bb8bea1d7fa08de6697c6e30941",
          "transactionIndex": "0x0"
        },
        {
          "address": "0x66a2a913e447d6b4bf33efbec43aaef87890fbbc",
          "blockHash": "0xc06910b8402f5e1e2dddcee9b922a6b41c551bfb5cd4fa7d787d8dbf9375125c",
          "blockNumber": "0x45f88",
          "data": "0x000000000000000000000000000000000000000000000000000000000cf48e0a",
          "logIndex": "0x4",
          "removed": false,
          "topics": [
            "0xddf252ad1be2c89b69c2b068fc378daa952ba7f163c4a11628f55a4df523b3ef",
            "0x000000000000000000000000db0e138ea29ca12deb9204c12434027d0de76797",
            "0x0000000000000000000000009f3423c7177f3e15211f7c9b7521bce06fd324b6"
          ],
          "transactionHash": "0x7d4a4b2f11f2fcbd16a61b2b8c42240997d27bb8bea1d7fa08de6697c6e30941",
          "transactionIndex": "0x0"
        },
        {
          "address": "0xdb0e138ea29ca12deb9204c12434027d0de76797",
          "blockHash": "0xc06910b8402f5e1e2dddcee9b922a6b41c551bfb5cd4fa7d787d8dbf9375125c",
          "blockNumber": "0x45f88",
          "data": "0x0000000000000000000000000000000000000000000000000000000715d82ea20000000000000000000000000000000000000000000000007f6feb9fa123a11c",
          "logIndex": "0x5",
          "removed": false,
          "topics": [
            "0x1c411e9a96e071241c2f21f7726b17ae89e3cab4c78be50e062b03a9fffbbad1"
          ],
          "transactionHash": "0x7d4a4b2f11f2fcbd16a61b2b8c42240997d27bb8bea1d7fa08de6697c6e30941",
          "transactionIndex": "0x0"
        },
        {
          "address": "0xdb0e138ea29ca12deb9204c12434027d0de76797",
          "blockHash": "0xc06910b8402f5e1e2dddcee9b922a6b41c551bfb5cd4fa7d787d8dbf9375125c",
          "blockNumber": "0x45f88",
          "data": "0x000000000000000000000000000000000000000000000000000000000000000000000000000000000000000000000000000000000000000000e7d293b3f331ce000000000000000000000000000000000000000000000000000000000cf48e0a0000000000000000000000000000000000000000000000000000000000000000",
          "logIndex": "0x6",
          "removed": false,
          "topics": [
            "0xd78ad95fa46c994b6551d0da85fc275fe613ce37657fb8d5e3d130840159d822",
            "0x0000000000000000000000009f3423c7177f3e15211f7c9b7521bce06fd324b6",
            "0x0000000000000000000000009f3423c7177f3e15211f7c9b7521bce06fd324b6"
          ],
          "transactionHash": "0x7d4a4b2f11f2fcbd16a61b2b8c42240997d27bb8bea1d7fa08de6697c6e30941",
          "transactionIndex": "0x0"
        }
      ],
      "logsBloom": "0x00200000000000000000000080000000000000000000000000000000040000002000004000010000000000000000000000000800000000000000000000000040000000000000000000000008000000200000000000000000000000000000000000000000000000000000000020010000000000000000002000000010000000000000000000000000000000000000000000000000000000080020404000100000000000001000000000000000000000000000000000000000000000000000000000000002000000080100040000000000000000000000001000000000000001000008000000000000000050000000001000000000000000000000000000000000",
      "status": "0x1",
      "to": "0x9f3423c7177f3e15211f7c9b7521bce06fd324b6",
      "transactionHash": "0x7d4a4b2f11f2fcbd16a61b2b8c42240997d27bb8bea1d7fa08de6697c6e30941",
      "transactionIndex": "0x0"
    }
  ]
}
